S00E00004162656F4F532E73726563FD
S113000045C0000060C000005EC000005CC000008D
S11300105AC0000058C0000056C0000054C0000080
S113002052C0000050C000004EC000004CC0000090
S11300304AC0000048C0000046C000009BC4000045
S113004042C0000040C0000004C5000098C5000084
S11300503AC0000038C0000036C0000034C00000C0
S113006032C0000030C000002EC000002CC00000D0
S11300702AC0000028C0000026C0000024C00000E0
S113008022C0000020C000001EC0000011241FBEBA
S1130090CFEFD0E1DEBFCDBF11E0A0E0B1E0E2E5FB
S11300A0FDE000E00BBF02C007900D92A630B1073F
S11300B0D9F721E0A6E0B1E001C01D92A734B20750
S11300C0E1F71ED644C69CCFCF93DF93CDB7DEB7FE
S11300D083E590E028E0FC01208383E590E023E5BC
S11300E030E0F90120812360FC01208381E590E068
S11300F02AEFFC01208387E590E027E530E0F90151
S113010020812260FC0120830000DF91CF910895BB
S1130110CF93DF9300D01F92CDB7DEB79A83898344
S11301206B8389819A819C012150310989819A814B
S1130130FC013183208389819A81FC0112828B81A5
S1130140282F237089819A812370FC0132813C7F9E
S1130150232BFC01228389819A81FC01148213825E
S113016089819A81FC011086178289819A81FC0118
S11301702781308589819A81FC013683258300009B
S11301800F900F900F90DF91CF910895CF93DF934D
S113019000D000D0CDB7DEB79A8389837C836B838C
S11301A089819A81FC0182819381892BE1F0898183
S11301B09A81FC01828193812B813C81FC013087EF
S11301C0278389819A81FC01228133818B819C81DF
S11301D0FC013683258389819A812B813C81FC0132
S11301E03383228311C089819A812B813C81FC0154
S11301F03383228389819A81FC012281338189811D
S11302009A81FC013183208300000F900F900F909E
S11302100F90DF91CF910895CF93DF9300D000D05A
S1130220CDB7DEB79A8389837C836B8389819A8176
S1130230FC0180819181892BE1F089819A81FC0103
S1130240808191812B813C81FC01368325838981C6
S11302509A81FC01208131818B819C81FC01308752
S1130260278389819A812B813C81FC0131832083FE
S113027011C089819A812B813C81FC0133832283C3
S113028089819A81FC012281338189819A81FC01CF
S11302903183208300000F900F900F900F90DF9117
S11302A0CF910895CF93DF9300D000D0CDB7DEB7C0
S11302B09A8389837C836B8389819A81FC01208161
S11302C0318189819A81FC018281938128173907C0
S11302D081F489819A81FC011382128289819A8135
S11302E0FC012281338189819A81FC01318320833D
S11302F054C089819A81FC01208131818B819C8148
S11303002817390799F48B819C81FC01278130855A
S113031089819A81FC013183208389819A81FC013E
S113032080819181FC011682158237C089819A816E
S1130330FC01228133818B819C812817390799F430
S11303408B819C81FC012581368189819A81FC0104
S11303503383228389819A81FC0182819381FC0108
S1130360108617821AC08B819C81FC01858196813D
S11303702B813C81F90127813085FC01308727835B
S11303808B819C81FC01878190852B813C81F901C3
S113039025813681FC01368325838B819C81FC0178
S11303A0168215828B819C81FC01258136818B818B
S11303B09C81FC013087278300000F900F900F90E1
S11303C00F90DF91CF910895CF93DF9300D0CDB7F5
S11303D0DEB79A83898389819A81FC0120813181E6
S11303E089819A81FC01828193812817390709F454
S11303F045C089819A81FC018281938129813A8156
S1130400F90120813181FC013087278389819A8118
S1130410FC018081918129813A81F9012281338112
S1130420FC013683258389819A81FC0120813181F5
S113043089819A81FC013383228389819A81FC0119
S113044080819181FC012781308589819A81FC0119
S11304503183208389819A81FC01228133818981BE
S11304609A81FC0180819181FC0116821582FC0134
S113047085819681F9019087878301C000000F90E0
S11304800F90DF91CF910895CF93DF9300D000D0E8
S113049000D0CDB7DEB79C838B837E836D838B8145
S11304A09C81FC01808191819A83898389819A81CD
S11304B0892B89F089819A81FC0182818370282F9C
S11304C030E08D819E81FC0182818370882F90E0D1
S11304D02817390774F42D813E818B819C81B901E1
S11304E09BDE49C089819A81FC01878190859A832A
S11304F0898389819A81892B89F089819A81FC0178
S113050082818370282F30E08D819E81FC0182815D
S11305108370882F90E02817390724F789819A81FE
S1130520892B19F189819A81FC01858196812D811C
S11305303E81FC013087278389819A81FC012581D2
S113054036818D819E81FC01368325838D819E8138
S113055029813A81FC013087278389819A812D8101
S11305603E81FC013683258306C02D813E818B812B
S11305709C81B9010BDE000026960FB6F894DEBF0D
S11305800FBECDBFDF91CF910895CF93DF93CDB749
S1130590DEB72A970FB6F894DEBF0FBECDBF9D839A
S11305A08C837F836E8348873A87298780910401EF
S11305B0909105010997909305018093040180911E
S11305C00401909105019B838A838A819B816885BC
S11305D09FDD8A819B81FC0180819181AC01415026
S11305E051092A813B81F901518340832C813D814A
S11305F0FC0120838A819B81FC0180819181AC0173
S1130600415051092A813B81F901518340832C8156
S11306103D81232F330F330BFC0120838A819B817F
S1130620FC0180819181AC01415051092A813B81B7
S1130630F90151834083FC0110828A819B81FC0172
S113064080819181AC01415051092A813B81F9019A
S113065051834083FC0110828A819B81FC0180814B
S11306609181AC01415051092A813B81F9015183A7
S113067040832EE1FC0120838A819B81FC018081DF
S11306809181AC01415051092A813B81F901518387
S113069040832FE1FC0120838A819B81FC018081BE
S11306A09181AC01415051092A813B81F901518367
S11306B04083FC01108281E0898312C08A819B817E
S11306C0FC0180819181AC01415051092A813B8117
S11306D0F90151834083FC01108289818F5F8983F2
S11306E08981883158F38A819B81FC0180819181C1
S11306F0AC01415051092A813B81F9015183408366
S113070029853A85FC0120838A819B81FC018081B3
S11307109181AC01415051092A813B81F9015183F6
S1130720408329853A85232F330F330BFC01208323
S11307308AE1898312C08A819B81FC018081918135
S1130740AC01415051092A813B81F9015183408315
S1130750FC01108289818F5F898389818E3158F3EE
S113076020910401309105018E819F81919581959D
S11307709109820F931F90930501809304018A814C
S11307809B81BC0188E091E07FDE00002A960FB6D1
S1130790F894DEBF0FBECDBFDF91CF9108958FEFE8
S11307A090E1FC01EDBFFEBF809108019091090129
S11307B090930701809306018091060190910701AF
S11307C0892B09F431C088E091E0FEDDE091060157
S11307D0F091070101900DBE01900EBEDF91CF9103
S11307E0BF91AF919F918F917F916F915F914F9145
S11307F03F912F911F910F91FF90EF90DF90CF9039
S1130800BF90AF909F908F907F906F905F904F902C
S11308103F902F901F900F900BBEFF91EF910F9080
S11308200FBE0F901895C0CF000078948895F89467
S1130830BBCFCF93DF93CDB7DEB746DCB0DF00008C
S1130840DF91CF910895F8940F920FB60F92EF9322
S1130850FF93E0910601F09107010E2E0F2A29F46F
S1130860FF91EF910F900FBE24C00BB60F921F9211
S11308702F923F924F925F926F927F928F929F92AC
S1130880AF92BF92CF92DF92EF92FF920F931F939A
S11308902F933F934F935F936F937F938F939F9384
S11308A0AF93BF93CF93DF9311240DB601920EB68D
S11308B0019275DF0000CF93DF9300D0CDB7DEB790
S11308C09A8389830FB60F92F894809106019091D0
S11308D00701BC0188E091E0E5DC2091060130913C
S11308E0070189819A81B901CFDDADDF0F900FBE79
S11308F000000F900F90DF91CF910895CF93DF9375
S113090000D0CDB7DEB79A83898380910601909198
S1130910070129813A81FC013483238380E191E03A
S1130920CADF00000F900F90DF91CF910895CF930D
S1130930DF9300D000D0CDB7DEB79A8389837C8360
S11309406B830FB60F92F8942B813C8189819A8135
S1130950B901A8DC8B819C81BC0188E091E094DD25
S11309600F900FBE00000F900F900F900F90DF912B
S1130970CF910895F8940F920FB60F92EF93FF93CF
S1130980E0910601F09107010E2E0F2A29F4FF9140
S1130990EF910F900FBE24C00BB60F921F922F92AF
S11309A03F924F925F926F927F928F929F92AF92FB
S11309B0BF92CF92DF92EF92FF920F931F932F93E8
S11309C03F934F935F936F937F938F939F93AF93D3
S11309D0BF93CF93DF9311240DB601920EB601920B
S11309E08091140190911501A0911601B091170105
S11309F00196A11DB11D8093140190931501A0933C
S1130A001601B0931701009110011091110119C042
S1130A10F801E780F084F80183819481892B39F00F
S1130A20F801838194810197F80194838383F80109
S1130A3083819481892B21F4B80180E191E077DFEF
S1130A4087010115110521F78FEC93E0FC0109944E
S1130A5000001F920F9200905F000F9211240090EB
S1130A605B000F922F933F934F935F936F937F930A
S1130A708F939F93AF93BF93EF93FF93CF93DF93A2
S1130A801F92CDB7DEB78BE290E0FC018081882F06
S1130A9090E08C719927892B31F08CE290E0FC0175
S1130AA08081898354C080913C0190913D01892BC0
S1130AB021F58091180191E0980F90931801882FE7
S1130AC090E02CE230E0F9012081865E9E4FFC012B
S1130AD02083809118018F718093180180911901EE
S1130AE08F5F8093190180911901803279F580918B
S1130AF0190181508093190129C080913C01909182
S1130B003D019C012F5F3F4F30933D0120933C01F9
S1130B102CE230E0F9012081FC01208380913E0128
S1130B2090913F01019790933F0180933E01892B5F
S1130B3071F410923D0110923C0180913A01909120
S1130B403B01BC018CE091E0F2DE01C000000F909B
S1130B50DF91CF91FF91EF91BF91AF919F918F91D1
S1130B607F916F915F914F913F912F910F900092E0
S1130B705B000F9000925F000F901F9018951F92DA
S1130B800F9200905F000F92112400905B000F926F
S1130B902F933F934F935F936F937F938F939F9381
S1130BA0AF93BF93EF93FF93CF93DF93CDB7DEB7AC
S1130BB02CE230E08091420190914301AC014F5FFF
S1130BC05F4F5093430140934201FC018081F9013E
S1130BD08083809144019091450101979093450150
S1130BE080934401892B89F48AE290E02AE230E080
S1130BF0F90120812F7DFC01208380914001909197
S1130C004101BC018CE091E092DE0000DF91CF91C4
S1130C10FF91EF91BF91AF919F918F917F916F91D0
S1130C205F914F913F912F910F9000925B000F9035
S1130C3000925F000F901F9018958BE390E02BE3D8
S1130C4030E0F901308121E02327FC01208381E099
S1130C5090E054DEF2CF8BE390E02BE330E0F90137
S1130C602081622F20914601422F50E021E030E0A4
S1130C7002C0220F331F4A95E2F72627FC01208386
S1130C808091000190910101A0910201B0910301B2
S1130C9035DEE1CF809146018F5F809346018091DC
S1130CA0460187708093460180914601882F90E029
S1130CB09C012F5F3F4F42E3429FC001439F900D31
S1130CC01124092E000CAA0BBB0B809300019093F6
S1130CD00101A0930201B093030180914601882F82
S1130CE090E09C012F5F3F4F88EE93E0289FA00186
S1130CF0299F500D389F500D1124CA01FFDDCACF22
S1130D00CF93DF93CDB7DEB78AE390E02FEFFC01FA
S1130D10208320E030E043E067E470E08DE196E07A
S1130D2034DC20E030E042E067E470E08BE296E0FF
S1130D302CDC20E030E041E067E470E08AE496E0F7
S1130D4024DC77DD80E090E0DF91CF910895F89482
S1050D50FFCFCF
S1090D52640000007F10A4
S9030000FC
