:100000000C9434000C9451000C9451000C94510049
:100010000C9451000C9451000C9451000C9451001C
:100020000C9451000C9451000C9451000C9451000C
:100030000C9451000C9451000C945D060C945100EA
:100040000C9451000C9451000C946A070C945100CC
:100050000C9451000C9451000C9451000C945100DC
:100060000C9451000C94510011241FBECFEFD8E026
:10007000DEBFCDBF11E0A0E0B1E0E4E6FBE102C0ED
:1000800005900D92A831B107D9F721E0A8E1B1E0C0
:1000900001C01D92AD33B207E1F70E94EA0A0C9449
:1000A000B00D0C940000A0913B01B0913C010D906B
:1000B0000DBE0D900EBE9F918F9178940895A091E2
:1000C0003B01B0913C010D900DBE0D900EBEDF9135
:1000D000CF91BF91AF919F918F917F916F915F91E0
:1000E0004F913F912F911F910F91FF90EF90DF90D3
:1000F000CF90BF90AF909F908F907F906F905F90C8
:100100004F903F902F901F90FF91EF910F900FBE57
:100110000F901895AFEFB8E0ADBFBEBFE0913701CB
:10012000F0913801F0933C01E0933B01309771F17D
:1001300087819085892B21F485819681892BD1F047
:10014000A0913901B0913A011896FC93EE9317975C
:10015000B683A583F0933A01E0933901A781B08576
:10016000B0933801A093370116961C921E921597F2
:1001700010861782828182FF03C00E945F00CECF6B
:100180008281846082830E945300C8CF78948895CE
:10019000F894C4CFF8940F920FB60F92EF93FF9399
:1001A000E0913B01F0913C010E2E0F2A31F4FF91BA
:1001B000EF910F900FBE0F9022C01F922F923F928F
:1001C0004F925F926F927F928F929F92AF92BF9267
:1001D000CF92DF92EF92FF920F931F932F933F9353
:1001E0004F935F936F937F938F939F93AF93BF933F
:1001F000CF93DF9311240DB601920EB60192EAE877
:10020000F0E00994FFCF00E183E0E82EF12C11C06B
:10021000B683A5831896FC93EE931797B093340199
:10022000A093330116961C921E9215970E94CA0045
:100230001FBF85B1802785B9E0913B01F0913C015A
:10024000F482E3821FB7F894A0913B01B0913C0186
:100250001796ED91FC911897309709F478C0159690
:100260008D919C911697009709F459C0EC01F8877D
:10027000EF831796ED91FC911897968385831696D8
:100280001C921E92159718961C921E921797E09139
:100290003301F0913401309709F448C012962C9143
:1002A0001297237030E08281837090E08217930769
:1002B0000CF4AECF0780F085E02D309759F08281A5
:1002C000837090E082179307D4F00780F085E02DCB
:1002D0003097A9F7E0913501F0913601309731F16F
:1002E000B087A7831696FC93EE931597B0933601CB
:1002F000A093350118961C921E92179797CF85816F
:100300009681EC01B887AF8316969C938E931597D0
:100310001896FC93EE931797B683A58387CFF09337
:100320003801E093370116821582A9CFB0933601C8
:10033000A0933501B0933401A093330116961C921B
:100340001E92159718961C921E9217976FCF1596AE
:10035000ED91FC911697309739F0F0933A01E093C4
:100360003901108617828BCF10923A011092390111
:10037000109238011092370182CFC0E285B18C27EC
:1003800085B980910201909103010097B9F3E09142
:100390003B01F0913C0194838383DFB7F894409153
:1003A0003B0150913C01FA01A781B085109709F4F7
:1003B00084C085819681009709F468C0FC01B087EC
:1003C000A783DA011796ED91FC91189796838583A0
:1003D000FA011682158210861782E0913301F0919E
:1003E0003401309709F45BC0DA0112962C91129710
:1003F000237030E08281837090E082179307C4F409
:10040000568345831896FC93EE93179750933401C7
:100410004093330116961C921E9215970E94CA00B3
:10042000DFBFACCF8281837090E082179307DCF04E
:100430000780F085E02D3097A9F7E0913501F09124
:100440003601309761F150874783DA011696FC93A5
:10045000EE931597509336014093350118961C92F0
:100460001E921797DBCF85819681DC0118965C93ED
:100470004E931797DA0116969C938E9315971896BC
:10048000FC93EE93179756834583C8CFB0933801FA
:10049000A093370116961C921E92159799CF5093F0
:1004A0003601409335015093340140933301FA01F2
:1004B0001682158210861782B1CF0580F681E02D55
:1004C000309739F0F0933A01E093390110861782A2
:1004D0007FCF10923A011092390110923801109298
:1004E000370176CFCF93DF93CDB7DEB72E970FB618
:1004F000F894DEBF0FBECDBF0DE23AE0432E512C83
:10050000612C712C48EE242E43E0342E1FB7F89452
:100510008091180180FD34C1809118018160809321
:1005200018011FBFEBE0F1E09FE68091C00085FF5E
:10053000FCCF9093C60091919111F7CF60912F015C
:100540007091300180913101909132010E944B0CE9
:1005500020E030E04AE754E40E94A30B6B877C87DD
:100560008D879E870E94150C4B015C01DC01CB013D
:10057000B7FC2DC2BC01CD01611571058105910546
:1005800009F434C219E001C01D2DDD24DA94D10E26
:10059000EE24E394F12CEC0EFD1EE10EF11CA30100
:1005A00092010E946F0D605DF7016083B901CA017D
:1005B000611571058105910539F7B7FCF5C11A3050
:1005C00080F4E1E0F0E0EC0FFD1FE10FF11D908100
:1005D0008091C00085FFFCCF9093C6001F5F1A304A
:1005E00081F7C501B4010E944D0C9B01AC016B85E4
:1005F0007C858D859E850E94310B6B017C0120E0FE
:1006000030E0A9010E949E0B87FDA5C120E030E0EB
:10061000A901C701B6010E949E0B8111F6C0E7E057
:10062000F1E09DE68091C00085FFFCCF9093C6006D
:1006300091919111F7CF4FB7F894A0911901B09112
:100640001A01109709F47CC117962D913C911897C7
:100650002115310509F469C215968D919C91169763
:10066000009709F4DBC1FC01308727831796ED91D1
:10067000FC9118979683858316961C921E92159767
:1006800018961C921E92179760913701709138014D
:100690006115710509F456C212962C9112972370B8
:1006A00030E0FB018281837090E0821793070CF0A9
:1006B00057C1B683A58318967C936E931797B09312
:1006C0003801A093370116961C921E9215974FBFC2
:1006D000E0913B01F0913C01348223821FB7F894F2
:1006E000A0913B01B0913C0117962D913C91189738
:1006F0002115310509F40CC215968D919C91169720
:10070000009709F45CC1FC01308727831796ED91AF
:10071000FC9118979683858316961C921E921597C6
:1007200018961C921E9217974091330150913401F4
:100730004115510509F4B0C112962C9112972370FE
:1007400030E0FA018281837090E0821793070CF009
:10075000D3C0B683A58318965C934E931797B09336
:100760003401A093330116961C921E9215970E9495
:10077000CA001FBF1FB7F8948091180180FFCCCE2C
:10078000FFB6F894E0913B01F0913C012781308560
:100790002115310509F4DFC185819681009709F49F
:1007A0008CC1DC0118963C932E931797A781B085D6
:1007B00016969C938E931597168215821086178233
:1007C0004091190150911A014115510509F47FC159
:1007D0002281237030E0DA0112968C911297837097
:1007E00090E0821793070CF021C11696FC93EE93CC
:1007F000159750874783F0931A01E09319011682E9
:1008000015820E94CA00FFBE8CCE8091C00085FF79
:10081000FCCF8EE28093C60020E030E040E251E45D
:10082000C701B6010E94020D6B017C010E94150CEC
:100830004B015C010E944D0C9B01AC01C701B6014C
:100840000E94310B6B017C0113E090E3980D8091C5
:10085000C00085FFFCCF9093C60020E030E0A901E6
:10086000C701B6010E949E0B882309F4D8CE11233C
:1008700009F4D5CE115020E030E040E251E4C70148
:10088000B6010E94020D6B017C010E94150C4B0108
:100890005C010E944D0C9B01AC01C701B6010E9496
:1008A000310B6B017C011111D0CF81E090E0A0E011
:1008B000B0E08B879C87AD87BE8720E030E040E0CA
:1008C0005FE3C701B6010E94FD0C87FD3FC08B8529
:1008D0009C85AD85BE85880E991EAA1EBB1E9AE01A
:1008E00089169104A104B1040CF4AFCF89E0882EDD
:1008F000912CA12CB12CA9CFFA0107C08281837061
:1009000090E0821793070CF477C00780F085E02D04
:100910003097A1F7E0913501F0913601309709F455
:10092000BBC0B087A7831696FC93EE931597B09340
:100930003601A093350118961C921E92179717CF77
:10094000809118018E7F80931801C1CE1B861C8672
:100950001D861E86BCCFF7FAF094F7F8F09456CEB9
:10096000FB0107C08281837090E0821793070CF42B
:1009700081C00780F085E02D3097A1F7E091390123
:10098000F0913A01309709F4DDC0B087A78316963D
:10099000FC93EE931597B0933A01A0933901189602
:1009A0001C921E92179793CE8D2D90E01D2DE1E0A5
:1009B000F0E0EC0FFD1FE80FF91F008300CE30932D
:1009C000380120933701F90116821582A5CE8827B8
:1009D0009927DC0188199909AA09BB09BC01CD0135
:1009E000611571058105910509F0CCCDB7FEF9CDF2
:1009F00019E089E090E0DBCFAF0185819681FC01B1
:100A0000B087A78316969C938E93159718965C9340
:100A10004E931797FA01B683A583A9CE30931A0196
:100A200020931901F9011682158226CEDA0109C038
:100A300012968C911297837090E0821793070CF4B2
:100A400053C017960D90BC91A02D109789F7A091D7
:100A50001B01B0911C011097D1F11896FC93EE93F5
:100A60001797B683A583F0931C01E0931B011086B2
:100A70001782C7CEBF0185819681FC01B087A7830D
:100A800016969C938E93159718967C936E93179752
:100A9000FB01B683A5831BCEB0933601A09335012D
:100AA000B0933401A093330116961C921E921597B1
:100AB00018961C921E9217975ACE309338012093A5
:100AC0003701D90116961C921E92159775CEF09398
:100AD0001C01E0931B01F0931A01E09319011682A7
:100AE0001582108617828DCEAD0115968D919C9141
:100AF0001697DC011896FC93EE93179796838583DF
:100B000050874783DA011696FC93EE93159779CEBA
:100B10001596ED91FC911697309751F1F0933A01AB
:100B2000E093390110861782F7CD1596ED91FC916F
:100B30001697309731F1F0931C01E0931B0110865A
:100B400017829ACDB0933A01A0933901B09338013E
:100B5000A0933701BCCDA581B6811097D9F0B09391
:100B60003A01A093390118961C921E92179724CE31
:100B700010923A0110923901109238011092370107
:100B8000CBCD10921C0110921B0110921A011092F1
:100B9000190172CD10923A01109239011092380168
:100BA0001092370109CECF93DF93DB01EC01E8818E
:100BB000F981309709F449C012964C91129743700D
:100BC00050E02281237030E024173507ACF476839F
:100BD00065831896FC93EE9317977983688316962E
:100BE0001C921E921597DF91CF9108952281237058
:100BF00030E024173507C4F00780F085E02D3097EA
:100C0000A9F7EC01EA81FB813097F9F0B087A7835F
:100C10001696FC93EE931597EC01BB83AA83189666
:100C20001C921E921797DFCFC581D681B887AF83FC
:100C30001696DC93CE9315971896FC93EE93179720
:100C4000B683A583DF91CF910895FC01B383A2837E
:100C5000B183A08316961C921E92159718961C922B
:100C60001E921797DF91CF91089520910001309146
:100C70000101F901399714821382637062834DB7C1
:100C80005EB7B9016A5071097EBF6DBF60E070E068
:100C90008F939F936F937F938DB79EB7918380833C
:100CA0005EBF4DBF295831093093010120930001E7
:100CB000BF0187E391E00C94D305F8940F920FB62F
:100CC0000F92EF93FF93E0913B01F0913C010E2EC8
:100CD0000F2A31F4FF91EF910F900FBE0F9022C0B9
:100CE0001F922F923F924F925F926F927F928F92BC
:100CF0009F92AF92BF92CF92DF92EF92FF920F93AB
:100D00001F932F933F934F935F936F937F938F9393
:100D10009F93AF93BF93CF93DF9311240DB60192AE
:100D20000EB6019280912F0190913001A091310176
:100D3000B09132010196A11DB11D80932F019093B6
:100D40003001A0933101B0933201E0913301F09171
:100D50003401309729F4EAE8F0E009941895BAC014
:100D600060913501709136014091390150913A01FD
:100D7000C0903701D09038017F0106C0AF019E2F8F
:100D8000852FC92ED82EF901278130858381948142
:100D9000009721F42115310549F416C00197948379
:100DA0008383892BB9F39C2D8D2D4FC0C581D681AE
:100DB000209781F038872F8387819085DC011696F4
:100DC000DC93CE93159773C06581768161157105AB
:100DD00031F476C0E9011E821D82790168C0DB0111
:100DE00018961C921E9217976DC00281037010E036
:100DF000E6018A81837090E0801791074CF4FE83AE
:100E0000ED83D086C782168215829E2F8F2F1DC03C
:100E1000D60117960D90BC91A02D109709F440C0F3
:100E200012968C911297837090E0801791078CF73F
:100E300025C0DA011896FC93EE93179756834583E5
:100E400010861782AF019C2D8D2D2115310509F0DB
:100E500098CF03C0AF019E2F852F7093360160930A
:100E60003501E0923301F092340190933701809381
:100E7000380150933A01409339016DCF15968D9109
:100E80009C911697EC01F887EF8396838583B08752
:100E9000A7831696FC93EE9315979C2D8D2DD5CF99
:100EA0004115510531F6AF019E2F852FCECF168209
:100EB000158210861782C114D10409F096CF5ECF37
:100EC000E12CF12C1682158210861782C114D104F0
:100ED00009F28BCF1F920F920FB60F9211248F93AE
:100EE000EF93FF93CF93DF931F92CDB7DEB780913F
:100EF000C0008C7119F5E0911E0181E08E0F809386
:100F00001E018091C600F0E0E15EFE4F808380917B
:100F10001D018F5F80931D0180911E018F70809352
:100F20001E0180911D010F90DF91CF91FF91EF91F4
:100F30008F910F900FBE0F901F9018958091C60053
:100F40008983F1CF0F931F93CF93C0E031E080915D
:100F50001D018823E1F39FB7F894E0911E01809171
:100F60001D01F0E0E81BF109EF70FF27E15EFE4F85
:100F7000208180911D01815080931D019FBF80EDD4
:100F8000820F8A3020F02D3211F7C327E0CF40E0E6
:100F900050E0BA01DB01CA01880F991FAA1FBB1FCD
:100FA000AC01BD01440F551F661F771F440F551F2D
:100FB000661F771F840F951FA61FB71F30E0A9017A
:100FC00040535109052E000C660B770B480F591F33
:100FD0006A1F7B1F80911D018823E1F39FB7F8945E
:100FE000E0911E0180911D01F0E0E81BF109EF7016
:100FF000FF27E15EFE4F208180911D01815080938B
:101000001D019FBF80ED820F8A3020F2CC2369F052
:101010008A019B0166277727CB01601B710B820B2E
:10102000930BCF911F910F910895CB01BA01CF91EE
:101030001F910F910895CF93DF93CDB7DEB72A9715
:101040000FB6F894DEBF0FBECDBF3DE2C32E4AE01F
:10105000842E912CA12CB12C5AE0D52E68EE262E90
:1010600063E0362E0E94A207613824E872072EE161
:101070008207910508F008C1609302017093030193
:1010800080930401909305011FB7F8948091180193
:1010900080FD0CC1809118018160809318011FBFF1
:1010A000E5E1F1E09DE68091C00085FFFCCF9093E3
:1010B000C60091919111F7CF409002015090030129
:1010C0006090040170900501D301C20177FC94C1C6
:1010D000BC01CD01611571058105910509F49BC124
:1010E00019E001C0102F0FEF010FEE24E394F12C53
:1010F000EC0EFD1EE10EF11CA50194010E946F0D86
:10110000605DF7016083B901CA0161157105810550
:10111000910541F777FC5DC11A3080F4E1E0F0E021
:10112000EC0FFD1FE10FF11D90818091C00085FF44
:10113000FCCF9093C6001F5F1A3081F78091C000EA
:1011400085FFFCCFD092C6004FB7F894A09119014B
:10115000B0911A01109709F412C117962D913C9184
:1011600018972115310509F4C8C115968D919C91E8
:101170001697009709F467C1FC01308727831796FB
:10118000ED91FC9118979683858316961C921E927A
:10119000159718961C921E921797609137017091BF
:1011A00038016115710509F4B6C112962C91129798
:1011B000237030E0FB018281837090E082179307F7
:1011C0000CF0E3C0B683A58318967C936E931797B3
:1011D000B0933801A093370116961C921E92159772
:1011E0004FBFE0913B01F0913C01348223821FB755
:1011F000F894A0913B01B0913C0117962D913C9140
:1012000018972115310509F4A3C115968D919C916C
:101210001697009709F4E8C0FC01308727831796DA
:10122000ED91FC9118979683858316961C921E92D9
:10123000159718961C921E92179740913301509162
:1012400034014115510509F447C112962C911297AA
:10125000237030E0FA018281837090E08217930757
:101260000CF069C0B683A58318965C934E931797CC
:10127000B0933401A093330116961C921E921597D9
:101280000E94CA001FBFEECE80E894E8AEE1B0E055
:101290008093020190930301A0930401B093050190
:1012A0001FB7F8948091180180FFF4CE0FB7F8941F
:1012B000E0913B01F0913C012781308521153105FA
:1012C00009F472C185819681009709F4FBC0DC01A5
:1012D00018963C932E931797A781B08516969C93EA
:1012E0008E931597168215821086178240911901E8
:1012F00050911A014115510509F437C1228123701B
:1013000030E0DA0112968C911297837090E0821788
:1013100093070CF0B2C01696FC93EE931597508786
:101320004783F0931A01E0931901168215820E94F7
:10133000CA000FBFB4CEFA0107C08281837090E06B
:10134000821793070CF46DC00780F085E02D30976D
:10135000A1F7E0913501F0913601309709F4BCC056
:10136000B087A7831696FC93EE931597B09336013A
:10137000A093350118961C921E92179781CF8091E9
:1013800018018E7F809318012BCFFB0107C082814B
:10139000837090E0821793070CF45DC00780F0859E
:1013A000E02D3097A1F7E0913901F0913A013097A3
:1013B00009F4B1C0B087A7831696FC93EE931597F6
:1013C000B0933A01A093390118961C921E92179778
:1013D00007CF802F90E0102FE1E0F0E0EC0FFD1F31
:1013E000E80FF91FC08298CE30933801209337015F
:1013F000F9011682158219CF88279927DC018419F3
:101400009509A609B709BC01CD01611571058105D2
:10141000910509F065CE77FE91CE19E089E090E064
:10142000DBCFAF0185819681FC01B087A78316963B
:101430009C938E93159718965C934E931797FA0189
:10144000B683A5831DCF30931A0120931901F901AA
:10145000168215829ACEBF0185819681FC01B087E4
:10146000A78316969C938E93159718967C936E93EC
:101470001797FB01B683A583B3CEDA0109C0129694
:101480008C911297837090E0821793070CF44CC0F4
:1014900017960D90BC91A02D109789F7A0911B0174
:1014A000B0911C01109709F460C01896FC93EE935C
:1014B0001797B683A583F0931C01E0931B01108658
:1014C000178235CF3093380120933701D901169612
:1014D0001C921E92159706CFB0933601A09335014A
:1014E000B0933401A093330116961C921E92159767
:1014F00018961C921E921797C3CE1596ED91FC91EB
:101500001697309709F447C0F0931C01E0931B0134
:10151000108617823ACEB0933A01A0933901B09366
:101520003801A09337015CCEAD0115968D919C9149
:101530001697DC011896FC93EE9317979683858394
:1015400050874783DA011696FC93EE931597EFCEFA
:101550001596ED91FC9116973097A1F0F0933A0112
:10156000E09339011086178260CEF0931C01E0935E
:101570001B01F0931A01E09319011682158210865F
:101580001782D5CE10923A0110923901109238018B
:10159000109237014ACE10921C0110921B0110923A
:1015A0001A0110921901F1CDA581B681109749F069
:1015B000B0933A01A093390118961C921E92179786
:1015C00091CE10923A011092390110923801109286
:1015D000370188CE8FEF84B99FB7F894C2E0C093EB
:1015E000C00020E130E03093C5002093C400E1EC5E
:1015F000F0E088E1808386E08093C200808180688B
:1016000080839FBF61E082E091E00E94350660E048
:1016100082E091E00E94350662E082E091E00E9463
:10162000350663E08DEB91E00E94350663E083E0D0
:1016300091E00E94350661E08BE198E00E9435065A
:1016400060E082E792E00E943506C4BD83E085BD7C
:101650008AEF87BDEEE6F0E08081826080830E94A1
:101660008A005058BB27AA270E94490B0C94C30C30
:101670000E94B50C38F00E94BC0C20F039F49F3F5A
:1016800019F426F40C94B20C0EF4E095E7FB0C94DC
:10169000AC0CE92F0E94D40C58F3BA1762077307F9
:1016A0008407950720F079F4A6F50C94F60C0EF457
:1016B000E0950B2EBA2FA02D0B01B90190010C0162
:1016C000CA01A0011124FF27591B99F0593F50F47A
:1016D000503E68F11A16F040A22F232F342F4427D2
:1016E000585FF3CF469537952795A795F0405395CA
:1016F000C9F77EF41F16BA0B620B730B840BBAF09A
:101700009150A1F0FF0FBB1F661F771F881FC2F704
:101710000EC0BA0F621F731F841F48F48795779518
:101720006795B795F7959E3F08F0B0CF9395880FD2
:1017300008F09927EE0F9795879508950E94880CD9
:1017400008F481E008950E94B70B0C94C30C0E942A
:10175000BC0C58F00E94B50C40F029F45F3F29F012
:101760000C94AC0C51110C94F70C0C94B20C0E941C
:10177000D40C68F39923B1F3552391F3951B550BC2
:10178000BB27AA2762177307840738F09F5F5F4F54
:10179000220F331F441FAA1FA9F335D00E2E3AF093
:1017A000E0E832D091505040E695001CCAF72BD0AB
:1017B000FE2F29D0660F771F881FBB1F26173707FC
:1017C0004807AB07B0E809F0BB0B802DBF01FF272E
:1017D00093585F4F3AF09E3F510578F00C94AC0C53
:1017E0000C94F70C5F3FE4F3983ED4F3869577951D
:1017F0006795B795F7959F5FC9F7880F911D9695E7
:10180000879597F90895E1E0660F771F881FBB1F42
:10181000621773078407BA0720F0621B730B840BEF
:10182000BA0BEE1F88F7E09508950E941C0C68948F
:10183000B1110C94F70C08950E94DC0C88F09F57AE
:1018400098F0B92F9927B751B0F0E1F0660F771FE4
:10185000881F991F1AF0BA95C9F714C0B13091F0DA
:101860000E94F60CB1E008950C94F60C672F782FC7
:101870008827B85F39F0B93FCCF38695779567959F
:10188000B395D9F73EF490958095709561957F4F0B
:101890008F4F9F4F0895E89409C097FB3EF49095B1
:1018A0008095709561957F4F8F4F9F4F9923A9F039
:1018B000F92F96E9BB279395F695879577956795C8
:1018C000B795F111F8CFFAF4BB0F11F460FF1BC00C
:1018D0006F5F7F4F8F4F9F4F16C0882311F096E99F
:1018E00011C0772321F09EE8872F762F05C066234D
:1018F00071F096E8862F70E060E02AF09A95660F06
:10190000771F881FDAF7880F9695879597F90895BE
:10191000990F0008550FAA0BE0E8FEEF1616170600
:10192000E807F907C0F012161306E407F50798F068
:10193000621B730B840B950B39F40A2661F0232B81
:10194000242B252B21F408950A2609F4A140A695FD
:101950008FEF811D811D089597F99F6780E870E0E2
:1019600060E008959FEF80EC089500240A94161615
:10197000170618060906089500240A94121613067D
:10198000140605060895092E0394000C11F488230B
:1019900052F0BB0F40F4BF2B11F460FF04C06F5F27
:1019A0007F4F8F4F9F4F089557FD9058440F551FFD
:1019B00059F05F3F71F04795880F97FB991F61F0D1
:1019C0009F3F79F087950895121613061406551F48
:1019D000F2CF4695F1DF08C0161617061806991FB4
:1019E000F1CF86957105610508940895E894BB27A9
:1019F00066277727CB0197F908950E94880C08F491
:101A00008FEF08950E94150D0C94C30C0E94B50C25
:101A100038F00E94BC0C20F0952311F00C94AC0C13
:101A20000C94B20C11240C94F70C0E94D40C70F39B
:101A3000959FC1F3950F50E0551F629FF001729F73
:101A4000BB27F00DB11D639FAA27F00DB11DAA1F82
:101A5000649F6627B00DA11D661F829F2227B00DCF
:101A6000A11D621F739FB00DA11D621F839FA00D5A
:101A7000611D221F749F3327A00D611D231F849FAA
:101A8000600D211D822F762F6A2F11249F57504001
:101A90009AF0F1F088234AF0EE0FFF1FBB1F661F7C
:101AA000771F881F91505040A9F79E3F510580F045
:101AB0000C94AC0C0C94F70C5F3FE4F3983ED4F319
:101AC000869577956795B795F795E7959F5FC1F7E9
:101AD000FE2B880F911D9695879597F90895052EF1
:101AE00097FB1EF400940E94860D57FD07D00E94BC
:101AF0008E0D07FC03D04EF40C94860D5095409546
:101B0000309521953F4F4F4F5F4F089590958095A9
:101B1000709561957F4F8F4F9F4F0895A1E21A2EC8
:101B2000AA1BBB1BFD010DC0AA1FBB1FEE1FFF1F81
:101B3000A217B307E407F50720F0A21BB30BE40BD1
:101B4000F50B661F771F881F991F1A9469F7609518
:101B50007095809590959B01AC01BD01CF010895D2
:041B6000F894FFCF27
:101B64007F08010000006D730A006F732074696DB3
:081B7400653A20006D733D008D
:00000001FF
