:1000000045C0000061C000005FC000005DC000008E
:100010005BC0000059C0000057C0000055C0000080
:1000200053C0000051C000004FC000004DC0000090
:100030004BC0000049C0000047C00000AAC4000037
:1000400043C0000041C0000092C50000EBC60000A4
:100050003BC0000039C0000037C0000035C00000C0
:1000600033C0000031C000002FC000002DC00000D0
:100070002BC0000029C0000027C0000025C00000E0
:1000800023C0000021C000001FC0000011241FBEBB
:10009000CFEFD0E1DEBFCDBF11E0A0E0B1E0EAEBF1
:1000A000F6E100E00BBF02C007900D92A433B10748
:1000B000D9F721E0A4E3B1E001C01D92A038B20756
:1000C000E1F7D1D70C945B0B9BCFCF93DF93CDB7E8
:1000D000DEB783E590E028E0FC01208383E590E033
:1000E00023E530E0F90120812062FC01208383E5D3
:1000F00090E023E530E0F90120812460FC012083B9
:1001000081E590E02AEFFC01208387E590E027E578
:1001100030E0F90120812260FC0120830000DF91A2
:10012000CF910895CF93DF93CDB7DEB78BE290E008
:1001300022E0FC01208389E290E020E1FC012083A1
:1001400080E990E0FC0110828AE290E028E1FC0165
:10015000208385E990E026E0FC0120838AE290E09C
:100160002AE230E0F90120812068FC0120830000B0
:10017000DF91CF910895CF93DF9300D01F92CDB739
:10018000DEB79A8389836B8389819A819C01215090
:10019000310989819A81FC013183208389819A8187
:1001A000FC0112828B81282F237089819A81237010
:1001B000FC0132813C7F232BFC01228389819A81BF
:1001C000FC011482138289819A81FC0110861782B6
:1001D00089819A81FC012781308589819A81FC017E
:1001E0003683258300000F900F900F90DF91CF9101
:1001F0000895CF93DF9300D000D0CDB7DEB79A83B8
:1002000089837C836B8389819A81FC0182819381BC
:10021000892BE1F089819A81FC01828193812B8174
:100220003C81FC013087278389819A81FC012281EE
:1002300033818B819C81FC013683258389819A815E
:100240002B813C81FC013383228311C089819A81F7
:100250002B813C81FC013383228389819A81FC01BB
:100260002281338189819A81FC01318320830000BE
:100270000F900F900F900F90DF91CF910895CF9333
:10028000DF9300D000D0CDB7DEB79A8389837C831B
:100290006B8389819A81FC0180819181892BE1F0B6
:1002A00089819A81FC01808191812B813C81FC01B3
:1002B0003683258389819A81FC01208131818B815C
:1002C0009C81FC013087278389819A812B813C8125
:1002D000FC013183208311C089819A812B813C816B
:1002E000FC013383228389819A81FC01228133813D
:1002F00089819A81FC013183208300000F900F9047
:100300000F900F90DF91CF910895CF93DF9300D09E
:1003100000D0CDB7DEB79A8389837C836B838981D4
:100320009A81FC012081318189819A81FC0182813D
:1003300093812817390781F489819A81FC011382FE
:10034000128289819A81FC012281338189819A817B
:10035000FC013183208354C089819A81FC01208172
:1003600031818B819C812817390799F48B819C817D
:10037000FC012781308589819A81FC0131832083AA
:1003800089819A81FC0180819181FC01168215820C
:1003900037C089819A81FC01228133818B819C81C4
:1003A0002817390799F48B819C81FC0125813681BE
:1003B00089819A81FC013383228389819A81FC019E
:1003C00082819381FC01108617821AC08B819C81E7
:1003D000FC01858196812B813C81F9012781308543
:1003E000FC01308727838B819C81FC01878190856C
:1003F0002B813C81F90125813681FC0136832583DF
:100400008B819C81FC01168215828B819C81FC0171
:10041000258136818B819C81FC01308727830000F8
:100420000F900F900F900F90DF91CF910895CF9381
:10043000DF9300D0CDB7DEB79A83898389819A8113
:10044000FC012081318189819A81FC018281938123
:100450002817390709F445C089819A81FC018281F6
:10046000938129813A81F90120813181FC01308712
:10047000278389819A81FC018081918129813A8138
:10048000F90122813381FC013683258389819A8198
:10049000FC012081318189819A81FC01338322838F
:1004A00089819A81FC0180819181FC0127813085BD
:1004B00089819A81FC013183208389819A81FC01A1
:1004C0002281338189819A81FC0180819181FC01A3
:1004D00016821582FC0185819681F90190878783B8
:1004E00001C000000F900F90DF91CF910895CF933E
:1004F000DF9300D000D000D0CDB7DEB79C838B83D4
:100500007E836D838B819C81FC01808191819A83A4
:10051000898389819A81892B89F089819A81FC015B
:1005200082818370282F30E08D819E81FC01828141
:100530008370882F90E02817390774F42D813E814D
:100540008B819C81B9019BDE49C089819A81FC0124
:10055000878190859A83898389819A81892B89F003
:1005600089819A81FC0182818370282F30E08D81FE
:100570009E81FC0182818370882F90E028173907C3
:1005800024F789819A81892B19F189819A81FC014B
:10059000858196812D813E81FC0130872783898169
:1005A0009A81FC01258136818D819E81FC013683F3
:1005B00025838D819E8129813A81FC0130872783A3
:1005C00089819A812D813E81FC013683258306C075
:1005D0002D813E818B819C81B9010BDE0000269626
:1005E0000FB6F894DEBF0FBECDBFDF91CF91089557
:1005F000CF93DF93CDB7DEB72A970FB6F894DEBF5F
:100600000FBECDBF9D838C837F836E8348873A87DF
:1006100029878091120190911301099790931301FA
:100620008093120180911201909113019B838A8320
:100630008A819B8168859FDD8A819B81FC01808105
:100640009181AC01415051092A813B81F9015183CB
:1006500040832C813D81FC0120838A819B81FC01A8
:1006600080819181AC01415051092A813B81F9017E
:10067000518340832C813D81232F330F330BFC01A9
:1006800020838A819B81FC0180819181AC01415052
:1006900051092A813B81F90151834083FC01108279
:1006A0008A819B81FC0180819181AC01415051097B
:1006B0002A813B81F90151834083FC0110828A81A8
:1006C0009B81FC0180819181AC01415051092A81BB
:1006D0003B81F90151834083FC011082198213C0D0
:1006E0008A819B81FC0180819181AC01415051093B
:1006F0002A813B81F901518340832981FC012083B8
:1007000089818F5F89838981873150F38A819B81B9
:10071000FC0180819181AC01415051092A813B81CA
:10072000F9015183408329853A85FC0120838A8120
:100730009B81FC0180819181AC01415051092A814A
:100740003B81F9015183408329853A85232F330F5B
:10075000330BFC012083198214C08A819B81FC0128
:1007600080819181AC01415051092A813B81F9017D
:10077000518340832981265EFC01208389818F5F1C
:1007800089838981863048F32091120130911301C9
:100790008E819F81919581959109820F931F9093EE
:1007A0001301809312018A819B81BC0186E391E051
:1007B0009EDE00002A960FB6F894DEBF0FBECDBFB6
:1007C000DF91CF9108958FEF90E1FC01EDBFFEBF67
:1007D00080913601909137019093350180933401D7
:1007E0008091340190913501892B09F431C086E361
:1007F00091E01DDEE0913401F091350101900DBED4
:1008000001900EBEFF91EF91DF91CF91BF91AF911B
:100810009F918F917F916F915F914F913F912F9118
:100820001F910F91FF90EF90DF90CF90BF90AF900E
:100830009F908F907F906F905F904F903F902F9000
:100840001F900F900BBE0F900FBE0F901895C0CF4A
:10085000000078948895F894BBCFCF93DF93CDB701
:10086000DEB733DCB0DF0000DF91CF910895F8945C
:100870000F920FB60F920BB60F921F9211242F9268
:100880003F924F925F926F927F928F929F92AF9220
:10089000BF92CF92DF92EF92FF920F931F932F930D
:1008A0003F934F935F936F937F938F939F93AF93F8
:1008B000BF93CF93DF93EF93FF93E0913401F091D7
:1008C00035010DB601920EB601927DDF0000CF9387
:1008D000DF9300D01F92CDB7DEB79B838A838FE56D
:1008E00090E0FC0180818983F8948091340190919B
:1008F0003501BC0186E391E008DD2091340130919F
:1009000035018A819B81B901F2DDB1DF8FE590E08D
:100910002981FC01208300000F900F900F90DF9140
:10092000CF910895CF93DF9300D0CDB7DEB79A83F0
:100930008983809134019091350129813A81FC01AC
:10094000348323838EE391E0C2DF00000F900F9089
:10095000DF91CF910895CF93DF9300D000D0CDB732
:10096000DEB79A8389837C836B832B813C81898169
:100970009A81B901CADC8B819C81BC0186E391E03C
:10098000B6DD00000F900F900F900F90DF91CF9188
:1009900008958091340190913501892B09F42EC07E
:1009A000F8940F920FB60F920BB60F921F9211246C
:1009B0002F923F924F925F926F927F928F929F926F
:1009C000AF92BF92CF92DF92EF92FF920F931F935D
:1009D0002F933F934F935F936F937F938F939F9347
:1009E000AF93BF93CF93DF93EF93FF93E0913401E5
:1009F000F09135010DB601920EB60192809142013F
:100A000090914301A0914401B09145010196A11D2F
:100A1000B11D8093420190934301A0934401B09390
:100A2000450100913E0110913F0119C0F801E78096
:100A3000F084F80183819481892B39F0F801838156
:100A400094810197F80194838383F80183819481D1
:100A5000892B21F4B8018EE391E07DDF8701011538
:100A6000110521F783EE93E0FC0109940000CF9378
:100A7000DF9300D01F92CDB7DEB79B838A838FE5CB
:100A800090E0FC0180818983F8948A819B81FC013C
:100A900080818170882329F08A819B81019617DFEC
:100AA00007C08A819B81FC0120812160FC01208399
:100AB0008FE590E02981FC01208300000F900F90CA
:100AC0000F90DF91CF910895CF93DF9300D000D0A6
:100AD0001F92CDB7DEB79D838C838FE590E0FC013C
:100AE00080818983F8948C819D81FC018181928130
:100AF0009B838A838A819B81892B41F08C819D8194
:100B000001962A813B81B90126DF07C08C819D8136
:100B1000FC0120812E7FFC0120838FE590E029815C
:100B2000FC01208300000F900F900F900F900F900A
:100B3000DF91CF910895CF93DF931F92CDB7DEB7AA
:100B40008FE590E0FC0180818983F894EBDA80E006
:100B500091E090937D0180937C018FE590E0298165
:100B6000FC01208300000F90DF91CF9108951F9228
:100B70000F9200905F000F92112400905B000F9283
:100B80002F933F934F935F936F937F938F939F9395
:100B9000AF93BF93EF93FF93CF93DF931F92CDB7A4
:100BA000DEB78BE290E0FC018081882F90E08C71B1
:100BB0009927892B31F08CE290E0FC0180818983B8
:100BC00054C080916A0190916B01892B21F580912D
:100BD000460191E0980F90934601882F90E02CE217
:100BE00030E0F9012081885B9E4FFC0120838091D9
:100BF00046018F7180934601809147018F5F8093FA
:100C0000470180914701803279F5809147018150F9
:100C10008093470129C080916A0190916B019C01EA
:100C20002F5F3F4F30936B0120936A012CE230E03D
:100C3000F9012081FC01208380916C0190916D016C
:100C4000019790936D0180936C01892B71F4109240
:100C50006B0110926A018091680190916901BC0159
:100C60008AE391E078DE01C000000F90DF91CF9120
:100C7000FF91EF91BF91AF919F918F917F916F9174
:100C80005F914F913F912F910F9000925B000F90D9
:100C900000925F000F901F901895CF93DF93CDB710
:100CA000DEB729970FB6F894DEBF0FBECDBF9F8386
:100CB0008E83798768871A8219828FE590E0FC011C
:100CC00080818B83F89437C08E819F819C012F5F38
:100CD0003F4F3F832E8326E431E03D832C832C81DC
:100CE0003D81F9012081422F50E02C813D81F901A5
:100CF00061817FEF760F2C813D81F9017183262F71
:100D000030E0BA01621B730B9B012F7133274C81BA
:100D10005D81240F351F2E5F3F4FF9012081FC01BB
:100D200020838885998501979987888789819A8109
:100D300001969A83898380914701882329F68885C3
:100D40009985892BF9F08091340190913501909328
:100D50006901809368018E819F8190936B018093DC
:100D60006A018885998590936D0180936C01298132
:100D70003A8188859985820F931F9A8389838AE3B4
:100D800091E0A5DD8FE590E02B81FC012083898136
:100D90009A8129960FB6F894DEBF0FBECDBFDF91C2
:100DA000CF910895CF93DF9300D000D01F92CDB79D
:100DB000DEB79B838A837D836C838FE590E0FC01A3
:100DC00080818983F89480913401909135019093CA
:100DD0006F0180936E018A819B8190937101809352
:100DE00070018C819D8190937301809372018AE2DE
:100DF00090E02AE230E0F90120812062FC012083AA
:100E00008AE391E064DD8FE590E02981FC01208395
:100E10008C819D810F900F900F900F900F90DF911C
:100E2000CF9108951F920F9200905F000F921124AE
:100E300000905B000F922F933F934F935F936F93BC
:100E40007F938F939F93AF93BF93EF93FF93CF9332
:100E5000DF93CDB7DEB72CE230E080917001909146
:100E60007101AC014F5F5F4F50937101409370016E
:100E7000FC018081F901808380917201909173015E
:100E800001979093730180937201892B89F48AE210
:100E900090E02AE230E0F90120812F7DFC012083DF
:100EA00080916E0190916F01BC018AE391E053DD66
:100EB0000000DF91CF91FF91EF91BF91AF919F9192
:100EC0008F917F916F915F914F913F912F910F90F3
:100ED00000925B000F9000925F000F901F9018959A
:100EE000CF93DF9300D01F92CDB7DEB79B838A8369
:100EF00061E070E0CE010196D0DE89810F900F9005
:100F00000F90DF91CF910895CF93DF9300D000D061
:100F1000CDB7DEB78A837C836B838A81898361E066
:100F200070E0CE0101963EDF80E00F900F900F90B1
:100F30000F90DF91CF9108958BE390E02BE330E0A9
:100F4000F901308121E02327FC01208381E090E03A
:100F5000E9DCF2CF8BE390E02BE330E0F901208174
:100F6000622F20917401422F50E021E030E002C056
:100F7000220F331F4A95E2F72627FC012083809138
:100F80000E0190910F01A0911001B0911101CADCE6
:100F9000E1CF809174018F5F80937401809174011F
:100FA00087708093740180917401882F90E09C0178
:100FB0002F5F3F4F42E3429FC001439F900D11249A
:100FC000092E000CAA0BBB0B80930E0190930F010E
:100FD000A0931001B093110180917401882F90E0CB
:100FE0009C012F5F3F4F88EE93E0289FA001299F2F
:100FF000500D389F500D1124CA0194DCCACF85E7EB
:1010000091E035DD84E191E079D085E791E05CDD28
:1010100084EF91E087DCF3CF85E791E028DD8091D4
:10102000420190914301A0914401B09145012B2FC1
:101030002F932A2F2F93292F2F938F9387E291E0BD
:10104000892F8F9387E291E08F9345D00F900F9077
:101050000F900F900F900F9085E791E035DD88EEAF
:1010600093E060DCD9CFCF93DF93CDB7DEB78AE3CF
:1010700090E02FEFFC0120835EDD20E030E043E0D4
:1010800067E470E08CE997E0B3DA20E030E042E01A
:1010900067E470E08AEA97E0ABDA20E030E041E014
:1010A00067E470E089EC97E0A3DA20E030E040E00C
:1010B00060E870E08FEF97E09BDA20E030E041E0FD
:1010C00060E870E08CE098E093DAC7DB80E090E0C5
:1010D000DF91CF910895CF93DF93CDB7DEB7AE0107
:1010E0004B5F5F4FFA0161917191AF0180917C017B
:1010F00090917D0133D0DF91CF9108950F931F938D
:10110000CF93DF93E0917C01F0917D01238121FF5A
:101110001BC08C01D0E0C0E0F80181918F0160918B
:101120007C0170917D01DB011896ED91FC9119977E
:10113000882331F00995892B79F3DFEFCFEFECCFDE
:101140008AE00995892B19F08FEF9FEF02C08D2F50
:101150009C2FDF91CF911F910F9108952F923F9275
:101160004F925F926F927F928F929F92AF92BF92B7
:10117000CF92DF92EF92FF920F931F93CF93DF9363
:10118000CDB7DEB72B970FB6F894DEBF0FBECDBF3D
:101190006C017B018A01FC0117821682838181FF29
:1011A000BFC1CE0101963C01F6019381F70193FD89
:1011B000859193FF81917F01882309F4ADC1853228
:1011C00039F493FD859193FF81917F01853221F45C
:1011D000B60190E0D6D1E8CF912C212C312CFFE143
:1011E000F315D8F08B3279F038F4803279F083320D
:1011F000A1F4232D20611DC08D3261F0803369F48C
:10120000232D216016C0832D8260382EE32DE460EB
:101210003E2E2AC0F32DF8601DC037FC2DC020EDF6
:10122000280F2A3040F08E32B9F436FC75C1232DD8
:101230002064322E19C036FE06C08AE0989E200D2A
:101240001124922E11C0EAE02E9E200D1124222E90
:10125000F32DF0623F2E08C08C3621F4832D806878
:10126000382E02C0883641F4F70193FD859193FF33
:1012700081917F018111B3CF982F9F7D9554933039
:1012800028F40C5F1F4F9FE399830DC0833631F024
:10129000833771F0833509F055C020C0F801808193
:1012A00089830E5F1F4F88248394912C530112C0B1
:1012B0002801F2E04F0E511CF801A080B18036FEEB
:1012C00003C0692D70E002C06FEF7FEFC5014ED102
:1012D0004C018201F32DFF773F2E15C0280122E03B
:1012E000420E511CF801A080B18036FE03C0692D6A
:1012F00070E002C06FEF7FEFC5012DD14C01F32DDF
:10130000F0683F2E820133FC19C0822D90E08816D0
:101310009906A0F4B60180E290E033D12A94F5CF8B
:10132000F50137FC859137FE81915F01B60190E0B0
:1013300028D121102A9421E0821A91088114910465
:1013400079F7E1C0843611F0893639F5F80137FEB6
:1013500007C060817181828193810C5F1F4F08C03B
:1013600060817181072E000C880B990B0E5F1F4F57
:10137000F32DFF763F2E97FF09C0909580957095CD
:1013800061957F4F8F4F9F4FF0683F2E2AE030E0EE
:10139000A30133D1882E861844C0853731F4232D1C
:1013A0002F7EB22E2AE030E025C0932D997FB92EF2
:1013B0008F36C1F018F4883579F0AEC0803719F057
:1013C000883721F0A9C0E92FE061BE2EB4FE0DC020
:1013D000FB2DF460BF2E09C034FE0AC0292F266001
:1013E000B22E06C028E030E005C020E130E002C0A7
:1013F00020E132E0F801B7FE07C06081718182818F
:1014000093810C5F1F4F06C06081718180E090E086
:101410000E5F1F4FA301F1D0882E8618FB2DFF779A
:101420003F2E36FE0DC0232D2E7FA22E891458F498
:1014300034FE0BC032FC09C0832D8E7EA82E05C061
:10144000B82CA32C03C0B82C01C0B92CA4FE0FC02B
:10145000FE01E80DF11D8081803321F49A2D997EE3
:10146000A92E09C0A2FE06C0B394B39404C08A2D6D
:10147000867809F0B394A3FC10C0A0FE06C0B21495
:1014800080F4280C922C9B180DC0B21458F4B601AD
:1014900080E290E076D0B394F8CFB21418F42B1811
:1014A00002C0982C212CA4FE0FC0B60180E390E06E
:1014B00068D0A2FE16C0A1FC03C088E790E002C07D
:1014C00088E590E0B6010CC08A2D867851F0A1FE27
:1014D00002C08BE201C080E2A7FC8DE2B60190E081
:1014E00050D0891430F4B60180E390E04AD09A9449
:1014F000F8CF8A94F301E80DF11D8081B60190E0E8
:1015000040D08110F6CF222009F44ECEB60180E201
:1015100090E037D02A94F7CFF6018681978102C0F8
:101520008FEF9FEF2B960FB6F894DEBF0FBECDBFA7
:10153000DF91CF911F910F91FF90EF90DF90CF90AF
:10154000BF90AF909F908F907F906F905F904F90E3
:101550003F902F900895FC0105906150704001105C
:10156000D8F7809590958E0F9F1F0895FC016150CC
:10157000704001900110D8F7809590958E0F9F1FB5
:1015800008950F931F93CF93DF93FB01238121FDD8
:1015900003C08FEF9FEF2CC022FF16C046815781FA
:1015A000248135814217530744F4A081B1819D0104
:1015B0002F5F3F4F318320838C93268137812F5FAC
:1015C0003F4F3783268314C08B01EC01FB0100845D
:1015D000F185E02D0995892BE1F6D80116968D91BC
:1015E0009C911797019617969C938E931697CE0110
:1015F000DF91CF911F910F910895FA01AA2728300A
:1016000051F1203181F1E8946F936E7F6E5F7F4FCF
:101610008F4F9F4FAF4FB1E03ED0B4E03CD0670F4B
:10162000781F891F9A1FA11D680F791F8A1F911D9E
:10163000A11D6A0F711D811D911DA11D20D009F4EE
:1016400068943F912AE0269F11243019305D319330
:10165000DEF6CF010895462F4770405D4193B3E019
:101660000FD0C9F7F6CF462F4F70405D4A3318F0C0
:10167000495D31FD4052419302D0A9F7EACFB4E071
:10168000A6959795879577956795BA95C9F7009729
:101690006105710508959B01AC010A2E06945795CA
:1016A000479537952795BA95C9F7620F731F841F21
:0A16B000951FA01D0895F894FFCFC8
:1016BA0000000003000000008407700700006400B7
:1016CA0000007F1048656C6C6F2066726F6D207425
:1016DA0061736B20373A006F732074696D653A2025
:0416EA0025750A0058
:00000001FF
