:1000000045C0000062C0000060C000005EC000008B
:100010005CC000005AC0000058C0000056C000007C
:1000200054C0000052C0000050C000004EC000008C
:100030004CC000004AC0000048C000000C94850A73
:1000400044C0000042C000000C948B0B0C94AD0C1B
:100050003CC000003AC0000038C0000036C00000BC
:1000600034C0000032C0000030C000002EC00000CC
:100070002CC000002AC0000028C0000026C00000DC
:1000800024C0000022C0000020C0000011241FBEB8
:10009000CFEFD0E1DEBFCDBF11E0A0E0B1E0E8E4FA
:1000A000F1E200E00BBF02C007900D92A433B1074C
:1000B000D9F721E0A4E3B1E001C01D92A338B20753
:1000C000E1F70E948B0D0C94A2109ACFEFEFF0E1B4
:1000D000EDBFFEBFE0917701F0917801F0937C01D4
:1000E000E0937B01309709F44CC0A0917901B09165
:1000F0007A01AE17BF07B9F01896FC93EE931797E5
:10010000B683A583F0937A01E0937901A781B08546
:10011000B0937801A093770116961C921E921597C2
:1001200010861782FD01A0917B01B0917C010D909A
:100130000DBE0D900EBEDF91CF91BF91AF919F91FB
:100140008F917F916F915F914F913F912F911F916F
:100150000F91FF90EF90DF90CF90BF90AF909F9066
:100160008F907F906F905F904F903F902F901F9057
:100170000F900BBEFF91EF910F900FBE0F9018954F
:10018000ADCF8091340190913501A0913601B091AD
:1001900037010196A11DB11D809334019093350163
:1001A000A0933601B093370178948895F894E09144
:1001B0007701F091780192CFCF93DF93C091000146
:1001C000D0910101DE011997437012964C9312975A
:1001D00014961C921E92139718961C921E921797B3
:1001E00016961C921E921597FE013A9780833197BE
:1001F0009083319710823197108231978EE18083FE
:1002000031978FE1808332976097188287E1AF0141
:100210004150510911965C934E9310828150ED919B
:10022000FC9111978111F3CFCF01019711969C9307
:100230008E932083ED91FC911197CF010197119638
:100240009C938E933083ED91FC911197CF01019790
:1002500011969C938E931082ED91FC911197CF0192
:10026000019711969C938E931082ED91FC911197BA
:10027000CF01019711969C938E931082ED91FC9182
:100280001197CF01019711969C938E931082CD0107
:10029000861B970B9093010180930001E0917701F9
:1002A000F0917801309709F445C012962C9112977D
:1002B000237030E08281837090E0821793079CF472
:1002C000B683A5831896FC93EE931797B0937801A5
:1002D000A0937701DF91CF9108958281837090E0A0
:1002E00082179307B4F00780F085E02D3097A9F7C7
:1002F000E0917901F0917A013097E1F0B087A7831E
:100300001696FC93EE931597B0937A01A09379011A
:10031000E1CFC581D681B887AF831696DC93CE93A3
:1003200015971896FC93EE931797B683A583DF91E4
:10033000CF910895B0937A01A0937901B093780199
:10034000A0937701DF91CF910895F8940F920FB6A3
:100350000F92EF93FF93E0917B01F0917C010E2EC1
:100360000F2A31F4FF91EF910F900FBE0F9024C030
:100370000BB60F921F922F923F924F925F926F9205
:100380007F928F929F92AF92BF92CF92DF92EF9225
:10039000FF920F931F932F933F934F935F936F930E
:1003A0007F938F939F93AF93BF93CF93DF9311244A
:1003B0000DB601920EB60192E6E6F0E0099401E076
:1003C000EE24E394F12C0CC0B683A5831896FC931D
:1003D000EE931797B0937001A0936F01B6DF1FBF24
:1003E0008BB380278BBBE0917B01F0917C01F48281
:1003F000E3821FB7F894A0917B01B0917C018091BA
:100400007701909178012091790130917A018217DA
:10041000930709F46DC0A817B90709F472C01596BF
:10042000ED91FC911697A217B30709F475C01796C2
:100430008D919C9118979087878317968D919C91A9
:100440001897EC01FE83ED8316961C921E92159769
:1004500018961C921E921797E0916F01F09170010F
:100460003097E9F112962C911297237030E0828137
:10047000837090E0821793070CF4A6CF0780F08575
:10048000E02D309759F08281837090E082179307B6
:10049000B4F00780F085E02D3097A9F7E091710165
:1004A000F09172013097D9F0B087A7831696FC932C
:1004B000EE931597B0937201A09371018FCF858150
:1004C0009681EC01B887AF8316969C938E9315970F
:1004D0001896FC93EE931797B683A5837FCFB093BE
:1004E0007201A0937101B0937001A0936F0176CF58
:1004F00010927A011092790110927801109277018E
:10050000A3CF1796ED91FC911897F0937801E093A3
:1005100077011682158298CFF0937A01E0937901E2
:100520001086178291CFEE24E394F12C0CC0B68391
:10053000A5831896FC93EE931797B0937001A09340
:100540006F0103DF1FBF2BB3C7010090020102C080
:10055000880F991F0A94E2F782278BBB80910301D1
:1005600090910401E0917B01F0917C01948383835D
:100570001FB7F894A0917B01B0917C018091770125
:10058000909178012091790130917A018217930737
:1005900009F46DC0A817B90709F472C01596ED915A
:1005A000FC911697A217B30709F475C017968D91A1
:1005B0009C9118979087878317968D919C91189797
:1005C000EC01FE83ED8316961C921E9215971896E9
:1005D0001C921E921797E0916F01F0917001309775
:1005E000E9F112962C911297237030E0828183708A
:1005F00090E0821793070CF49ACF0780F085E02DE6
:10060000309759F08281837090E082179307B4F09D
:100610000780F085E02D3097A9F7E0917101F09106
:1006200072013097D9F0B087A7831696FC93EE93AA
:100630001597B0937201A093710183CF8581968144
:10064000EC01B887AF8316969C938E9315971896F6
:10065000FC93EE931797B683A58373CFB093720183
:10066000A0937101B0937001A0936F016ACF1092B3
:100670007A01109279011092780110927701A3CF3C
:100680001796ED91FC911897F0937801E09377011C
:100690001682158298CFF0937A01E0937901108643
:1006A000178291CF01E012E388EEC82E83E0D82EA6
:1006B0000CC0B683A5831896FC93EE931797B0935E
:1006C0007001A0936F0141DEFFBE809102018F5F38
:1006D000883009F499C08093020190E00196189F38
:1006E000A001199F500D1124052E000C660B770BED
:1006F0008C9D90018D9D300D9C9D300D112440935B
:100700000301509304016093050170930601E09189
:100710007B01F0917C0134832383FFB6F894A09190
:100720007B01B0917C0180917701909178012091BB
:10073000790130917A018217930709F477C0A817DD
:10074000B90709F47CC01596ED91FC911697A21794
:10075000B30709F47FC017968D919C9118979087E5
:10076000878317968D919C911897EC01FE83ED83FA
:1007700016961C921E92159718961C921E92179709
:10078000E0916F01F0917001309709F446C0129624
:100790002C911297237030E08281837090E0821751
:1007A00093070CF486CF0780F085E02D309759F041
:1007B0008281837090E082179307B4F00780F08500
:1007C000E02D3097A9F7E0917101F0917201309717
:1007D00021F1B087A7831696FC93EE931597B093FB
:1007E0007201A09371016FCF85819681EC01B8876A
:1007F000AF8316969C938E9315971896FC93EE9361
:100800001797B683A5835FCF0093020120ED37E0F1
:1008100044E650E060E070E072CFB0937201A093C4
:100820007101B0937001A0936F014DCF10927A01C6
:1008300010927901109278011092770199CF179652
:10084000ED91FC911897F0937801E093770116826F
:1008500015828ECFF0937A01E0937901108617828A
:1008600087CF85E1C82E81E0D82E08E813E1FFB6D6
:10087000F8948091380180FF97C0EFB6F894A0916A
:100880007B01B0917C01809177019091780120915A
:10089000790130917A018217930749F410927A0115
:1008A0001092790110927801109277012DC0A8174B
:1008B000B90759F41796ED91FC911897F0937801C8
:1008C000E0937701168215821FC0A217B30759F46F
:1008D0001596ED91FC911697F0937A01E0937901CA
:1008E0001086178211C01596CD91DC911697179638
:1008F0008D919C91189798878F8317968D919C91D5
:100900001897FC01D683C58316961C921E921597E4
:1009100018961C921E921797E0913901F0913A01B6
:100920003097B1F012962C911297237030E08281AB
:10093000837090E082179307A4F4B683A58318967A
:10094000FC93EE931797B0933A01A093390129C015
:10095000B0933C01A0933B01B0933A01A0933901BD
:1009600020C00780F085E02D309709F477C182819F
:10097000837090E082179307A4F778C1B087A783AC
:100980001696FC93EE931597B0933C01A0933B0110
:1009900008C0B0933C01A0933B01B0933A01A093EF
:1009A0003901D3DCEFBE05C08091380181608093AE
:1009B0003801FFBE80916B0190916C01A0916D0197
:1009C000B0916E01BF93AF939F938F93DF92CF92BD
:1009D0000E94E20D4FB7F894A0913901B0913A010D
:1009E0000F900F900F900F900F900F90109709F4A9
:1009F00092C05FB7F8948091390190913A012091AB
:100A00003B0130913C018217930749F410923C015D
:100A100010923B0110923A01109239012DC0A81793
:100A2000B90759F41796ED91FC911897F0933A0194
:100A3000E0933901168215821FC0A217B30759F43B
:100A40001596ED91FC911697F0933C01E0933B01D4
:100A50001086178211C01596ED91FC911697179686
:100A60008D919C9118979087878317968D919C9173
:100A70001897EC01FE83ED8316961C921E92159733
:100A800018961C921E921797E0917701F0917801C9
:100A90003097B1F012962C911297237030E082813A
:100AA000837090E082179307A4F4B683A583189609
:100AB000FC93EE931797B0937801A093770129C028
:100AC000B0937A01A0937901B0937801A093770154
:100AD00020C00780F085E02D309709F4E7C08281BF
:100AE000837090E082179307A4F7D0C0B087A783E4
:100AF0001696FC93EE931597B0937A01A093790123
:100B000008C0B0937A01A0937901B0937801A093C3
:100B100077015FBF05C0809138018E7F80933801D7
:100B20004FBFE0917B01F0917C0114830383FFB6FA
:100B3000F894A0917B01B0917C0180917701909114
:100B400078012091790130917A018217930749F455
:100B500010927A0110927901109278011092770127
:100B60002DC0A817B90759F41796ED91FC91189765
:100B7000F0937801E0937701168215821FC0A217C7
:100B8000B30759F41596ED91FC911697F0937A01FD
:100B9000E09379011086178211C01596ED91FC91B2
:100BA000169717968D919C91189790878783179623
:100BB0008D919C911897EC01FE83ED8316961C9203
:100BC0001E92159718961C921E921797E0916F012E
:100BD000F09170013097B1F012962C91129723701A
:100BE00030E08281837090E082179307A4F4B6838B
:100BF000A5831896FC93EE931797B0937001A0937A
:100C00006F0129C0B0937201A0937101B09370017C
:100C1000A0936F0120C00780F085E02D309709F484
:100C20005DC08281837090E082179307A4F746C06D
:100C3000B087A7831696FC93EE931597B093720135
:100C4000A093710108C0B0937201A0937101B09399
:100C50007001A0936F0179DBFFBE09CEE0913B01EB
:100C6000F0913C01309709F089CE93CE8581968131
:100C7000EC01B887AF8316969C938E9315971896C0
:100C8000FC93EE931797B683A5838BCE85819681CF
:100C9000EC01B887AF8316969C938E9315971896A0
:100CA000FC93EE931797B683A58333CFE091790138
:100CB000F0917A01309709F019CF23CF8581968181
:100CC000EC01B887AF8316969C938E931597189670
:100CD000FC93EE931797B683A583BDCFE091710186
:100CE000F0917201309709F0A3CFADCF83E2C82E07
:100CF00081E0D82E08EE13E0FFB6F8948091380119
:100D000080FF97C0EFB6F894A0917B01B0917C0171
:100D100080917701909178012091790130917A0149
:100D20008217930749F410927A0110927901109278
:100D30007801109277012DC0A817B90759F41796BA
:100D4000ED91FC911897F0937801E093770116826A
:100D500015821FC0A217B30759F41596ED91FC91A7
:100D60001697F0937A01E09379011086178211C0EB
:100D70001596CD91DC91169717968D919C911897A9
:100D800098878F8317968D919C911897FC01D68335
:100D9000C58316961C921E92159718961C921E9249
:100DA0001797E0913901F0913A013097B1F012961E
:100DB0002C911297237030E08281837090E082172B
:100DC0009307A4F4B683A5831896FC93EE93179724
:100DD000B0933A01A093390129C0B0933C01A0938C
:100DE0003B01B0933A01A093390120C00780F08500
:100DF000E02D309709F476C18281837090E08217EC
:100E00009307A4F777C1B087A7831696FC93EE9358
:100E10001597B0933C01A0933B0108C0B0933C01EF
:100E2000A0933B01B0933A01A09339018EDAEFBE53
:100E300005C080913801816080933801FFBE8091A8
:100E400037018F93809136018F93809135018F9375
:100E5000809134018F93DF92CF92B4D64FB7F8943C
:100E6000A0913901B0913A010F900F900F900F901F
:100E70000F900F90109709F492C05FB7F89480918B
:100E8000390190913A0120913B0130913C01821748
:100E9000930749F410923C0110923B0110923A01E1
:100EA000109239012DC0A817B90759F41796ED9182
:100EB000FC911897F0933A01E0933901168215825C
:100EC0001FC0A217B30759F41596ED91FC91169720
:100ED000F0933C01E0933B011086178211C01596F8
:100EE000ED91FC91169717968D919C91189790878C
:100EF000878317968D919C911897EC01FE83ED8363
:100F000016961C921E92159718961C921E92179771
:100F1000E0917701F09178013097B1F012962C9121
:100F20001297237030E08281837090E082179307DC
:100F3000A4F4B683A5831896FC93EE931797B09309
:100F40007801A093770129C0B0937A01A093790129
:100F5000B0937801A093770120C00780F085E02D41
:100F6000309709F4E7C08281837090E0821793077D
:100F7000A4F7D0C0B087A7831696FC93EE9315977D
:100F8000B0937A01A093790108C0B0937A01A0933D
:100F90007901B0937801A09377015FBF05C080917C
:100FA00038018E7F809338014FBFE0917B01F09133
:100FB0007C0114830383FFB6F894A0917B01B09168
:100FC0007C01809177019091780120917901309195
:100FD0007A018217930749F410927A0110927901ED
:100FE00010927801109277012DC0A817B90759F413
:100FF0001796ED91FC911897F0937801E0937701A3
:10100000168215821FC0A217B30759F41596ED91E9
:10101000FC911697F0937A01E0937901108617827C
:1010200011C01596ED91FC91169717968D919C9194
:1010300018979087878317968D919C911897EC014C
:10104000FE83ED8316961C921E92159718961C929D
:101050001E921797E0916F01F09170013097B1F0F7
:1010600012962C911297237030E08281837090E069
:1010700082179307A4F4B683A5831896FC93EE9386
:101080001797B0937001A0936F0129C0B0937201BC
:10109000A0937101B0937001A0936F0120C00780ED
:1010A000F085E02D309709F45DC08281837090E077
:1010B00082179307A4F746C0B087A7831696FC93C0
:1010C000EE931597B0937201A093710108C0B0938D
:1010D0007201A0937101B0937001A0936F0135D993
:1010E000FFBE0ACEE0913B01F0913C01309709F040
:1010F0008ACE94CE85819681EC01B887AF8316960F
:101100009C938E9315971896FC93EE931797B6833E
:10111000A5838CCE85819681EC01B887AF83169626
:101120009C938E9315971896FC93EE931797B6831E
:10113000A58333CFE0917901F0917A01309709F0DE
:1011400019CF23CF85819681EC01B887AF8316969E
:101150009C938E9315971896FC93EE931797B683EE
:10116000A583BDCFE0917101F0917201309709F034
:10117000A3CFADCF0F931F93CF93DF931F92CDB724
:10118000DEB789830FB7F89480917B0190917C0141
:1011900090933E0180933D01CE01019690934001D2
:1011A00080933F0181E090E0909342018093410160
:1011B000559A1FB7F89440917B0150917C01809122
:1011C0007701909178012091790130917A0182170D
:1011D000930709F47EC04817590709F483C04217E2
:1011E000530709F48BC0FA01A581B68187819085E8
:1011F00018969C938E93179787819085FC01B683F0
:10120000A583DA0116961C921E92159718961C92C9
:101210001E921797E0917301F0917401309709F4D1
:101220004FC012962C911297237030E08281837008
:1012300090E082179307D4F4568345831896FC9365
:10124000EE93179750937401409373017ED81FBF9C
:101250000FBF80E00F90DF91CF911F910F91089504
:101260008281837090E082179307BCF00780F0853D
:10127000E02D3097A9F7E0917501F0917601309754
:10128000F9F050874783DA011696FC93EE93159791
:101290005093760140937501D9CF85819681DC0109
:1012A00018965C934E931797DA0116969C938E933B
:1012B00015971896FC93EE93179756834583C6CFE0
:1012C00050937601409375015093740140937301DC
:1012D000BDCF10927A01109279011092780110928C
:1012E00077018FCFDA011796ED91FC911897F09363
:1012F0007801E09377011682158283CFDA01159683
:10130000ED91FC911697F0937A01E09379011086A4
:10131000178277CFEF92FF921F93CF93DF931F92A5
:10132000CDB7DEB71FB7F89480914401882369F1E7
:10133000E0904301F12C80914401DE01119621E0FF
:1013400030E0AD014F5F5F4F9FEF980F90934401E6
:10135000F701E81BF109EF71FF27ED5BFE4F82817A
:101360008C932150310960914401892FDA01611178
:10137000E8CF2115310571F41FBF89810F90DF91EE
:10138000CF911F91FF90EF900895AE014F5F5F4F97
:1013900021E030E080917B0190917C019093660187
:1013A00080936501509368014093670130936A010F
:1013B00020936901FFB6F89440917B0150917C0124
:1013C00080917701909178012091790130917A0193
:1013D0008217930709F478C04817590709F47DC0AC
:1013E0004217530709F485C0FA01A581B6818781A8
:1013F000908518969C938E93179787819085FC0112
:10140000B683A583DA0116961C921E92159718963C
:101410001C921E921797E0917301F091740130971E
:1014200009F449C012962C911297237030E0828102
:10143000837090E082179307A4F45683458318962F
:10144000FC93EE93179750937401409373010E949D
:10145000A501FFBE91CF8281837090E08217930730
:10146000BCF00780F085E02D3097A9F7E091750179
:10147000F09176013097F9F050874783DA0116969C
:10148000FC93EE9315975093760140937501DFCF4F
:1014900085819681DC0118965C934E931797DA014B
:1014A00016969C938E9315971896FC93EE93179728
:1014B00056834583CCCF509376014093750150936A
:1014C000740140937301C3CF10927A011092790195
:1014D000109278011092770195CFDA011796ED916D
:1014E000FC911897F0937801E093770116821582AA
:1014F00089CFDA011596ED91FC911697F0937A0158
:10150000E0937901108617827DCFF8940F920FB681
:101510000F92EF93FF93E0917B01F0917C010E2EEF
:101520000F2A31F4FF91EF910F900FBE0F9024C05E
:101530000BB60F921F922F923F924F925F926F9233
:101540007F928F929F92AF92BF92CF92DF92EF9253
:10155000FF920F931F932F933F934F935F936F933C
:101560007F938F939F93AF93BF93CF93DF93112478
:101570000DB601920EB6019280916B0190916C01B3
:10158000A0916D01B0916E010196A11DB11D8093D6
:101590006B0190936C01A0936D01B0936E01E0918B
:1015A0006F01F0917001309721F4E6E6F0E00994C4
:1015B000B2C02781308583819481009709F490C05F
:1015C000019794838383009709F08AC06FB7F894DA
:1015D00080916F0190917001409171015091720161
:1015E0008417950749F410927201109271011092BC
:1015F000700110926F0128C08E179F0759F4A781C0
:10160000B085B0937001A0936F0116961C921E9244
:1016100015971AC04E175F0759F4A581B681B0938C
:101620007201A093710118961C921E9217970CC01C
:10163000A581B6818781908518969C938E93179784
:10164000C781D085BE83AD8316821582108617822E
:10165000A0917701B09178011097B1F04281437069
:1016600050E012968C911297837090E08417950742
:10167000A4F41696FC93EE931597B087A783F09386
:101680007801E09377012BC0F0937A01E093790120
:10169000F0937801E093770122C017960D90BC91EA
:1016A000A02D109789F112968C911297837090E07B
:1016B0008417950794F719C01896FC93EE93179723
:1016C000B683A583F0937A01E093790108C0F09383
:1016D0007A01E0937901F0937801E09377016FBF8D
:1016E000F901309709F065CF60CF1596CD91DC9167
:1016F0001697F887EF83D683C583B087A78316969E
:10170000FC93EE931597EBCFA0917901B0917A01FC
:10171000109791F6DCCF1F920F920FB60F92112403
:101720000BB60F922F933F934F936F937F938F93AB
:101730009F93AF93BF93EF93FF93CF93DF931F924A
:10174000CDB7DEB78BB18C7109F086C0809167018F
:1017500090916801892B09F4A1C0E0916701F09193
:101760006801CF01019690936801809367018CB165
:1017700080838091690190916A01019790936A0139
:1017800080936901892BA9F00F90DF91CF91FF9190
:10179000EF91BF91AF919F918F917F916F914F91F9
:1017A0003F912F910F900BBE0F900FBE0F901F9087
:1017B000189510926801109267016091650170910F
:1017C00066014FB7F8948091730190917401209154
:1017D0007501309176018217930709F493C0681759
:1017E000790709F4A2C06217730709F4AAC0FB01C4
:1017F000A581B6818781908518969C938E931797C3
:1018000087819085FC01B683A583DB0116961C9227
:101810001E92159718961C921E921797E0917701C9
:10182000F0917801309709F476C012962C911297B6
:10183000237030E08281837090E082179307ACF4CC
:10184000768365831896FC93EE93179770937801CF
:10185000609377014FBF98CF8CB1898395CF8281F8
:10186000837090E082179307CCF10780F085E02D1C
:101870003097A9F7E0917901F0917A01309709F456
:101880004AC070876783DB011696FC93EE93159729
:1018900070937A01609379014FBF76CFE091430155
:1018A00081E08E0F80934301F0E08CB1ED5BFE4F41
:1018B0008283809143018F71809343018091440121
:1018C0008F5F8093440180914401803209F05CCFA6
:1018D0008091440181508093440156CF8581968147
:1018E000DC0118967C936E931797DB0116969C93F8
:1018F0008E9315971896FC93EE93179776836583CE
:101900004FBF42CF10927601109275011092740170
:10191000109273017ACF70937A016093790170937A
:101920007801609377014FBF2FCFDB011796ED91C0
:10193000FC911897F0937401E0937301168215825D
:1019400064CFDB011596ED91FC911697F09376012B
:10195000E09375011086178258CF1F920F920FB631
:101960000F9211240BB60F922F933F934F938F93A7
:101970009F93AF93BF93CF93DF93EF93FF93E09148
:101980003F01F0914001CF01019690934001809377
:101990003F0180818CB98091410190914201019772
:1019A0009093420180934101892B91F0FF91EF9137
:1019B000DF91CF91BF91AF919F918F914F913F91C7
:1019C0002F910F900BBE0F900FBE0F901F90189588
:1019D0005598A0913D01B0913E014FB7F894809188
:1019E00073019091740120917501309176018217F5
:1019F000930709F475C0A817B90709F47AC01596BA
:101A0000ED91FC911697A217B30709F47DC01796C4
:101A10008D919C911897908787831796CD91DC9133
:101A20001897FE83ED8316961C921E9215971896B2
:101A30001C921E921797E0917701F09178013097F0
:101A400009F444C012962C911297237030E08281E1
:101A5000837090E08217930794F4B683A583189659
:101A6000FC93EE931797B0937801A09377014FBF43
:101A70009DCF8281837090E082179307BCF007802E
:101A8000F085E02D3097A9F7E0917901F0917A0186
:101A90003097E1F0B087A7831696FC93EE931597E5
:101AA000B0937A01A09379014FBF80CFC581D681D1
:101AB000B887AF831696DC93CE9315971896FC9350
:101AC000EE931797B683A5834FBF70CFB0937A017B
:101AD000A0937901B0937801A09377014FBF66CFAF
:101AE0001092760110927501109274011092730198
:101AF0009ACF1796ED91FC911897F0937401E093AB
:101B00007301168215828FCFF0937601E0937501F1
:101B10001086178288CF8FEF8ABB8FB7F89492E038
:101B20009BB990E199B91092900098E19AB996E02A
:101B300090939500579A27E031E0309380012093ED
:101B40007F018FBF20E030E043E067E470E08FED7D
:101B500091E00E94DC0020E030E042E067E470E0C9
:101B600083E992E00E94DC0020E030E041E067E49D
:101B700070E082E593E00E94DC0020E030E040E08D
:101B800060E870E086E796E00E94DC0020E030E04C
:101B900041E060E870E081E394E00E94DC0088E0CE
:101BA00083BF83B7846083BF8AEF81BF87B78260BA
:101BB00087BF80E285BFE6E6F0E009948FEF8BBB3C
:101BC0001BBAFDCFCF93DF93CDB7DEB7AE014B5F2E
:101BD0005F4FFA0161917191AF0180917F01909106
:101BE000800103D0DF91CF9108952F923F924F92C1
:101BF0005F926F927F928F929F92AF92BF92CF929D
:101C0000DF92EF92FF920F931F93CF93DF93CDB7A5
:101C1000DEB72B970FB6F894DEBF0FBECDBF6C01B9
:101C20007B018A01FC0117821682838181FFBFC17B
:101C3000CE0101963C01F6019381F70193FD859158
:101C400093FF81917F01882309F4ADC1853239F476
:101C500093FD859193FF81917F01853221F4B60137
:101C600090E0D6D1E8CF912C212C312CFFE1F31557
:101C7000D8F08B3279F038F4803279F08332A1F4E5
:101C8000232D20611DC08D3261F0803369F4232D36
:101C9000216016C0832D8260382EE32DE4603E2E35
:101CA0002AC0F32DF8601DC037FC2DC020ED280F91
:101CB0002A3040F08E32B9F436FC75C1232D2064F1
:101CC000322E19C036FE06C08AE0989E200D1124DF
:101CD000922E11C0EAE02E9E200D1124222EF32D0B
:101CE000F0623F2E08C08C3621F4832D8068382E98
:101CF00002C0883641F4F70193FD859193FF8191ED
:101D00007F018111B3CF982F9F7D9554933028F494
:101D10000C5F1F4F9FE399830DC0833631F08337EB
:101D200071F0833509F055C020C0F80180818983A6
:101D30000E5F1F4F88248394912C530112C02801F9
:101D4000F2E04F0E511CF801A080B18036FE03C0B6
:101D5000692D70E002C06FEF7FEFC5014ED14C01DD
:101D60008201F32DFF773F2E15C0280122E0420E9D
:101D7000511CF801A080B18036FE03C0692D70E0CF
:101D800002C06FEF7FEFC5012DD14C01F32DF0683C
:101D90003F2E820133FC19C0822D90E088169906EF
:101DA000A0F4B60180E290E033D12A94F5CFF5019A
:101DB00037FC859137FE81915F01B60190E028D113
:101DC00021102A9421E0821A91088114910479F754
:101DD000E1C0843611F0893639F5F80137FE07C0C5
:101DE00060817181828193810C5F1F4F08C0608187
:101DF0007181072E000C880B990B0E5F1F4FF32D7E
:101E0000FF763F2E97FF09C090958095709561955C
:101E10007F4F8F4F9F4FF0683F2E2AE030E0A301A5
:101E200033D1882E861844C0853731F4232D2F7E78
:101E3000B22E2AE030E025C0932D997FB92E8F363F
:101E4000C1F018F4883579F0AEC0803719F08837C2
:101E500021F0A9C0E92FE061BE2EB4FE0DC0FB2D1C
:101E6000F460BF2E09C034FE0AC0292F2660B22EAE
:101E700006C028E030E005C020E130E002C020E1EB
:101E800032E0F801B7FE07C06081718182819381E1
:101E90000C5F1F4F06C06081718180E090E00E5F93
:101EA0001F4FA301F1D0882E8618FB2DFF773F2E00
:101EB00036FE0DC0232D2E7FA22E891458F434FE39
:101EC0000BC032FC09C0832D8E7EA82E05C0B82C15
:101ED000A32C03C0B82C01C0B92CA4FE0FC0FE0176
:101EE000E80DF11D8081803321F49A2D997EA92E71
:101EF00009C0A2FE06C0B394B39404C08A2D8678AC
:101F000009F0B394A3FC10C0A0FE06C0B21480F484
:101F1000280C922C9B180DC0B21458F4B60180E224
:101F200090E076D0B394F8CFB21418F42B1802C016
:101F3000982C212CA4FE0FC0B60180E390E068D05D
:101F4000A2FE16C0A1FC03C088E790E002C088E5AD
:101F500090E0B6010CC08A2D867851F0A1FE02C037
:101F60008BE201C080E2A7FC8DE2B60190E050D088
:101F7000891430F4B60180E390E04AD09A94F8CF07
:101F80008A94F301E80DF11D8081B60190E040D004
:101F90008110F6CF222009F44ECEB60180E290E007
:101FA00037D02A94F7CFF6018681978102C08FEF50
:101FB0009FEF2B960FB6F894DEBF0FBECDBFDF911B
:101FC000CF911F910F91FF90EF90DF90CF90BF9036
:101FD000AF909F908F907F906F905F904F903F90C9
:101FE0002F900895FC010590615070400110D8F7C2
:101FF000809590958E0F9F1F0895FC016150704051
:1020000001900110D8F7809590958E0F9F1F08952D
:102010000F931F93CF93DF93FB01238121FD03C017
:102020008FEF9FEF2CC022FF16C04681578124817D
:1020300035814217530744F4A081B1819D012F5F80
:102040003F4F318320838C93268137812F5F3F4F11
:102050003783268314C08B01EC01FB010084F185DA
:10206000E02D0995892BE1F6D80116968D919C916A
:102070001797019617969C938E931697CE01DF9132
:10208000CF911F910F910895FA01AA27283051F19D
:10209000203181F1E8946F936E7F6E5F7F4F8F4F99
:1020A0009F4FAF4FB1E03ED0B4E03CD0670F781FF8
:1020B000891F9A1FA11D680F791F8A1F911DA11DDD
:1020C0006A0F711D811D911DA11D20D009F4689416
:1020D0003F912AE0269F11243019305D3193DEF6BE
:1020E000CF010895462F4770405D4193B3E00FD074
:1020F000C9F7F6CF462F4F70405D4A3318F0495D5F
:1021000031FD4052419302D0A9F7EACFB4E0A69541
:102110009795879577956795BA95C9F70097610563
:10212000710508959B01AC010A2E069457954795B9
:1021300037952795BA95C9F7620F731F841F951FAE
:08214000A01D0895F894FFCFE3
:102148007F10010A0000000000000300000000BA30
:10215800088A0900006F732074696D653A20256C40
:10216800750A0069646C655F636F756E743A202543
:042178006C750A0078
:00000001FF
