S00E00004162656F4F532E73726563FD
S113000045C0000062C0000060C000005EC0000087
S11300105CC000005AC0000058C0000056C0000078
S113002054C0000052C0000050C000004EC0000088
S11300304CC000004AC0000048C000000C94B60C3C
S113004044C0000042C000000C94BC0D0C94DE0EB1
S11300503CC000003AC0000038C0000036C00000B8
S113006034C0000032C0000030C000002EC00000C8
S11300702CC000002AC0000028C0000026C00000D8
S113008024C0000022C0000020C0000011241FBEB4
S1130090CFEFD0E1DEBFCDBF11E0A0E0B1E0E0EFF3
S11300A0F9E200E00BBF02C007900D92A433B10740
S11300B0D9F721E0A4E3B1E001C01D92A738B2074B
S11300C0E1F70E94BC0F0C94F6149ACFEFEFF0E125
S11300D0EDBFFEBFE0917B01F0917C01F0938001C4
S11300E0E0937F01309709F44CC0A0917D01B09159
S11300F07E01AE17BF07B9F01896FC93EE931797DD
S1130100B683A583F0937E01E0937D01A781B0853A
S1130110B0937C01A0937B0116961C921E921597B6
S113012010861782FD01A0917F01B09180010D908E
S11301300DBE0D900EBEDF91CF91BF91AF919F91F7
S11301408F917F916F915F914F913F912F911F916B
S11301500F91FF90EF90DF90CF90BF90AF909F9062
S11301608F907F906F905F904F903F902F901F9053
S11301700F900BBEFF91EF910F900FBE0F9018954B
S1130180ADCF8091340190913501A0913601B091A9
S113019037010196A11DB11D80933401909335015F
S11301A0A0933601B093370178948895F894E09140
S11301B07B01F0917C0192CFCF93DF93C09100013A
S11301C0D0910101DE011997437012964C93129756
S11301D014961C921E92139718961C921E921797AF
S11301E016961C921E921597FE013A9780833197BA
S11301F09083319710823197108231978EE18083FA
S113020031978FE1808332976097188287E1AF013D
S11302104150510911965C934E9310828150ED9197
S1130220FC9111978111F3CFCF01019711969C9303
S11302308E932083ED91FC911197CF010197119634
S11302409C938E933083ED91FC911197CF0101978C
S113025011969C938E931082ED91FC911197CF018E
S1130260019711969C938E931082ED91FC911197B6
S1130270CF01019711969C938E931082ED91FC917E
S11302801197CF01019711969C938E931082CD0103
S1130290861B970B9093010180930001E0917B01F1
S11302A0F0917C01309709F445C012962C91129775
S11302B0237030E08281837090E0821793079CF46E
S11302C0B683A5831896FC93EE931797B0937C019D
S11302D0A0937B01DF91CF9108958281837090E098
S11302E082179307B4F00780F085E02D3097A9F7C3
S11302F0E0917D01F0917E013097E1F0B087A78312
S11303001696FC93EE931597B0937E01A0937D010E
S1130310E1CFC581D681B887AF831696DC93CE939F
S113032015971896FC93EE931797B683A583DF91E0
S1130330CF910895B0937E01A0937D01B0937C0189
S1130340A0937B01DF91CF910895F8940F920FB69B
S11303500F92EF93FF93E0917F01F09180010E2EB5
S11303600F2A31F4FF91EF910F900FBE0F9024C02C
S11303700BB60F921F922F923F924F925F926F9201
S11303807F928F929F92AF92BF92CF92DF92EF9221
S1130390FF920F931F932F933F934F935F936F930A
S11303A07F938F939F93AF93BF93CF93DF93112446
S11303B00DB601920EB60192E6E6F0E0099482E0F1
S11303C0A82EB12C5FC0C0923D01D0923E01E092B4
S11303D03F01F0924001E0917F01F0918001B482ED
S11303E0A3821FB7F894A0917F01B09180018091FE
S11303F07B0190917C0120917D0130917E018217D7
S1130400930709F495C0A817B90709F49AC015967B
S1130410ED91FC911697A217B30709F49DC01796A6
S11304208D919C9118979087878317968D919C91B5
S11304301897EC01FE83ED8316961C921E92159775
S113044018961C921E921797E0917301F091740113
S1130450309709F464C012962C911297237030E0FF
S11304608281837090E0821793079CF5B683A583FD
S11304701896FC93EE931797B0937401A0937301AD
S113048064DF1FBF20E030E040E85FE360913D019E
S113049070913E0180913F01909140010E941D1096
S11304A06B017C0120E030E04AE754E40E948110B3
S11304B0811189CF10923D0110923E0110923F01AB
S11304C01092400188CF8281837090E08217930755
S11304D0B4F00780F085E02D3097A9F7E09175011D
S11304E0F09176013097D9F0B087A7831696FC93E4
S11304F0EE931597B0937601A0937501C1CF8581D2
S11305009681EC01B887AF8316969C938E931597CA
S11305101896FC93EE931797B683A583B1CFB09347
S11305207601A0937501B0937401A0937301A8CFD1
S113053010927E0110927D0110927C0110927B0139
S11305407BCF1796ED91FC911897F0937C01E09383
S11305507B011682158270CFF0937E01E0937D01BA
S11305601086178269CFAA24A394B12C94EFC92EC4
S1130570DD24D394E12CF12C0CC0B683A58318960A
S1130580FC93EE931797B0937401A0937301DDDE8F
S11305901FBF2BB3C5010090020102C0880F991F31
S11305A00A94E2F782278BBB00917F0110918001AE
S11305B020910301309104014091050150910601FD
S11305C0A8EEB3E00E941712A70196010E94F5114C
S11305D0E8013C832B831FB7F894A0917F01B0916D
S11305E0800180917B0190917C0120917D0130916B
S11305F07E018217930709F46DC0A817B90709F49F
S113060072C01596ED91FC911697A217B30709F4E1
S113061075C017968D919C9118979087878317962C
S11306208D919C911897EC01FE83ED8316961C9294
S11306301E92159718961C921E921797E0917301BB
S1130640F09174013097E9F112962C91129723706E
S113065030E08281837090E0821793070CF48DCF91
S11306600780F085E02D309759F08281837090E007
S113067082179307B4F00780F085E02D3097A9F72F
S1130680E0917501F09176013097D9F0B087A78396
S11306901696FC93EE931597B0937601A09375018B
S11306A076CF85819681EC01B887AF8316969C93AB
S11306B08E9315971896FC93EE931797B683A5839C
S11306C066CFB0937601A0937501B0937401A093A3
S11306D073015DCF10927E0110927D0110927C0116
S11306E010927B01A3CF1796ED91FC911897F0938C
S11306F07C01E0937B011682158298CFF0937E01F2
S1130700E0937D011086178291CF7724739402E3DE
S113071094EFC92EDD24D394E12CF12C0CC0B683C4
S1130720A5831896FC93EE931797B0937401A09346
S113073073010BDE1FBFA0910201AF5FA83009F463
S11307409CC0A0930201B0E011960A9F40010B9F48
S1130750900C1124092C000CAA08BB0820E432E4F4
S11307604FE050E00E942112A70196010E94F5116A
S11307708092030190920401A0920501B0920601B7
S1130780E0917F01F0918001348323831FB7F894B3
S1130790A0917F01B091800180917B0190917C01B7
S11307A020917D0130917E018217930709F478C06E
S11307B0A817B90709F47DC01596ED91FC91169719
S11307C0A217B30709F480C017968D919C911897CE
S11307D09087878317968D919C911897EC01FE83DF
S11307E0ED8316961C921E92159718961C921E92D3
S11307F01797E0917301F0917401309709F447C0A1
S113080012962C911297237030E08281837090E0CD
S1130810821793070CF483CF0780F085E02D30977F
S113082059F08281837090E082179307B4F00780B7
S1130830F085E02D3097A9F7E0917501F0917601EC
S1130840309729F1B087A7831696FC93EE931597FA
S1130850B0937601A09375016CCF85819681EC01EC
S1130860B887AF8316969C938E9315971896FC932E
S1130870EE931797B683A5835CCF7092020120EAAA
S11308803FE084E6882E912CA12CB12C71CFB0933B
S11308907601A0937501B0937401A093730149CFBD
S11308A010927E0110927D0110927C0110927B01C6
S11308B098CF1796ED91FC911897F0937C01E093F3
S11308C07B01168215828DCFF0937E01E0937D012A
S11308D01086178286CF85E1C82E81E0D82E00E1EC
S11308E017E2FFB6F8948091380180FF97C0EFB605
S11308F0F894A0917F01B091800180917B01909147
S11309007C0120917D0130917E018217930749F487
S113091010927E0110927D0110927C0110927B0155
S11309202DC0A817B90759F41796ED91FC911897A3
S1130930F0937C01E0937B01168215821FC0A217FD
S1130940B30759F41596ED91FC911697F0937E0137
S1130950E0937D011086178211C01596CD91DC912C
S1130960169717968D919C91189798878F83179651
S11309708D919C911897FC01D683C58316961C9281
S11309801E92159718961C921E921797E0913901A2
S1130990F0913A013097B1F012962C91129723708E
S11309A030E08281837090E082179307A4F4B683C9
S11309B0A5831896FC93EE931797B0933A01A093EE
S11309C0390129C0B0933C01A0933B01B0933A0193
S11309D0A093390120C00780F085E02D309709F4F9
S11309E077C18281837090E082179307A4F778C15E
S11309F0B087A7831696FC93EE931597B0933C01AA
S1130A00A0933B0108C0B0933C01A0933B01B09379
S1130A103A01A093390199DCEFBE05C080913801F9
S1130A20816080933801FFBE80916F0190917001C5
S1130A30A0917101B0917201BF93AF939F938F9373
S1130A40DF92CF920E9436124FB7F894A0913901E9
S1130A50B0913A010F900F900F900F900F900F905C
S1130A60109709F492C05FB7F8948091390190917E
S1130A703A0120913B0130913C018217930749F4DC
S1130A8010923C0110923B0110923A0110923901EC
S1130A902DC0A817B90759F41796ED91FC91189732
S1130AA0F0933A01E0933901168215821FC0A21710
S1130AB0B30759F41596ED91FC911697F0933C0108
S1130AC0E0933B011086178211C01596ED91FC91BD
S1130AD0169717968D919C911897908787831796F0
S1130AE08D919C911897EC01FE83ED8316961C92D0
S1130AF01E92159718961C921E921797E0917B01EF
S1130B00F0917C013097B1F012962C9112972370DA
S1130B1030E08281837090E082179307A4F4B68357
S1130B20A5831896FC93EE931797B0937C01A0933A
S1130B307B0129C0B0937E01A0937D01B0937C0119
S1130B40A0937B0120C00780F085E02D309709F445
S1130B50E7C08281837090E082179307A4F7D0C026
S1130B60B087A7831696FC93EE931597B0937E01F6
S1130B70A0937D0108C0B0937E01A0937D01B09342
S1130B807C01A0937B015FBF05C0809138018E7FFB
S1130B90809338014FBFE0917F01F091800114836D
S1130BA00383FFB6F894A0917F01B09180018091F6
S1130BB07B0190917C0120917D0130917E0182170F
S1130BC0930749F410927E0110927D0110927C01EA
S1130BD010927B012DC0A817B90759F41796ED910F
S1130BE0FC911897F0937C01E0937B0116821582A7
S1130BF01FC0A217B30759F41596ED91FC911697EF
S1130C00F0937E01E0937D011086178211C0159642
S1130C10ED91FC91169717968D919C91189790875A
S1130C20878317968D919C911897EC01FE83ED8331
S1130C3016961C921E92159718961C921E92179740
S1130C40E0917301F09174013097B1F012962C91F8
S1130C501297237030E08281837090E082179307AB
S1130C60A4F4B683A5831896FC93EE931797B093D8
S1130C707401A093730129C0B0937601A093750108
S1130C80B0937401A093730120C00780F085E02D18
S1130C90309709F45DC08281837090E082179307D6
S1130CA0A4F746C0B087A7831696FC93EE931597D6
S1130CB0B0937601A093750108C0B0937601A09318
S1130CC07501B0937401A09373013FDBFFBE09CE9D
S1130CD0E0913B01F0913C01309709F089CE93CE2D
S1130CE085819681EC01B887AF8316969C938E9389
S1130CF015971896FC93EE931797B683A5838BCE1E
S1130D0085819681EC01B887AF8316969C938E9368
S1130D1015971896FC93EE931797B683A58333CF54
S1130D20E0917D01F0917E01309709F019CF23CF36
S1130D3085819681EC01B887AF8316969C938E9338
S1130D4015971896FC93EE931797B683A583BDCF9A
S1130D50E0917501F0917601309709F0A3CFADCF02
S1130D6083E2C82E81E0D82E00ED17E0FFB6F89498
S1130D708091380180FF97C0EFB6F894A0917F016D
S1130D80B091800180917B0190917C0120917D0143
S1130D9030917E018217930749F410927E011092DC
S1130DA07D0110927C0110927B012DC0A817B90718
S1130DB059F41796ED91FC911897F0937C01E09308
S1130DC07B01168215821FC0A217B30759F415962A
S1130DD0ED91FC911697F0937E01E0937D011086CE
S1130DE0178211C01596CD91DC91169717968D91A7
S1130DF09C91189798878F8317968D919C9118973B
S1130E00FC01D683C58316961C921E9215971896DC
S1130E101C921E921797E0913901F0913A01309794
S1130E20B1F012962C911297237030E08281837076
S1130E3090E082179307A4F4B683A5831896FC93D5
S1130E40EE931797B0933A01A093390129C0B09358
S1130E503C01A0933B01B0933A01A093390120C017
S1130E600780F085E02D309709F477C18281837083
S1130E7090E082179307A4F778C1B087A7831696EA
S1130E80FC93EE931597B0933C01A0933B0108C0EB
S1130E90B0933C01A0933B01B0933A01A093390174
S1130EA054DAEFBE05C08091380181608093380127
S1130EB0FFBE809137018F93809136018F9380918B
S1130EC035018F93809134018F93DF92CF920E94EA
S1130ED036124FB7F894A0913901B0913A010F90AE
S1130EE00F900F900F900F900F90109709F492C0ED
S1130EF05FB7F8948091390190913A0120913B01B8
S1130F0030913C018217930749F410923C011092EE
S1130F103B0110923A01109239012DC0A817B9076C
S1130F2059F41796ED91FC911897F0933A01E093D8
S1130F303901168215821FC0A217B30759F41596FA
S1130F40ED91FC911697F0933C01E0933B011086E0
S1130F50178211C01596ED91FC91169717968D91F5
S1130F609C9118979087878317968D919C911897D9
S1130F70EC01FE83ED8316961C921E92159718962B
S1130F801C921E921797E0917B01F0917C0130979F
S1130F90B1F012962C911297237030E08281837005
S1130FA090E082179307A4F4B683A5831896FC9364
S1130FB0EE931797B0937C01A0937B0129C0B09363
S1130FC07E01A0937D01B0937C01A0937B0120C09E
S1130FD00780F085E02D309709F4E7C082818370A3
S1130FE090E082179307A4F7D0C0B087A783169622
S1130FF0FC93EE931597B0937E01A0937D0108C0F6
S1131000B0937E01A0937D01B0937C01A0937B01FA
S11310105FBF05C0809138018E7F809338014FBF38
S1131020E0917F01F091800114830383FFB6F8946B
S1131030A0917F01B091800180917B0190917C010E
S113104020917D0130917E018217930749F410921B
S11310507E0110927D0110927C0110927B012DC0C3
S1131060A817B90759F41796ED91FC911897F093C6
S11310707C01E0937B01168215821FC0A217B3077F
S113108059F41596ED91FC911697F0937E01E09337
S11310907D011086178211C01596ED91FC9116976B
S11310A017968D919C9118979087878317968D91A9
S11310B09C911897EC01FE83ED8316961C921E9268
S11310C0159718961C921E921797E0917301F09150
S11310D074013097B1F012962C911297237030E07E
S11310E08281837090E082179307A4F4B683A5836A
S11310F01896FC93EE931797B0937401A093730121
S113110029C0B0937601A0937501B0937401A093A4
S1131110730120C00780F085E02D309709F45DC08D
S11311208281837090E082179307A4F746C0B0874A
S1131130A7831696FC93EE931597B0937601A0932C
S1131140750108C0B0937601A0937501B093740142
S1131150A0937301FAD8FFBE09CEE0913B01F09150
S11311603C01309709F089CE93CE85819681EC01BC
S1131170B887AF8316969C938E9315971896FC9315
S1131180EE931797B683A5838BCE85819681EC0168
S1131190B887AF8316969C938E9315971896FC93F5
S11311A0EE931797B683A58333CFE0917D01F09139
S11311B07E01309709F019CF23CF85819681EC0108
S11311C0B887AF8316969C938E9315971896FC93C5
S11311D0EE931797B683A583BDCFE0917501F09187
S11311E07601309709F0A3CFADCFCF93DF931F9251
S11311F0CDB7DEB702E010E08EE1282E312CD89A6C
S1131200E0917F01F091800114830383FFB6F89489
S113121040917F015091800180917B0190917C01EC
S113122020917D0130917E018217930709F496C1C4
S11312304817590709F49EC14217530709F4B2C16C
S1131240FA01A581B6818781908518969C938E9327
S1131250179787819085FC01B683A583DA011696DA
S11312601C921E92159718961C921E921797E09145
S11312707301F0917401309709F455C112962C91C1
S11312801297237030E08281837090E08217930775
S11312900CF0CEC0568345831896FC93EE931797B3
S11312A0509374014093730150D8FFBEC0903D0128
S11312B0D0903E01E0903F01F09040012BEA3AEAE1
S11312C04AEA50E4C701B6010E9492114B015C0145
S11312D020E030E040E85FE314D787FD15C120E04B
S11312E030E040E850E4C701B6010E9492112B019E
S11312F03C0120E03FEF4FE757E40E948E1118169F
S11313000CF0CCC020E030E04AE754E4C701B60159
S1131310FCD64B015C0120E030E04AE755E40E9432
S113132092116B017C0120E030E040E85FE3E9D6F4
S113133087FD1DC120E03FEF4FE757E4C701B60129
S1131340EDD718160CF0E8C020E030E040E251E49C
S1131350C501B401E7D741D76115710539F080E9BA
S113136091E00197F1F761507109C9F789818A9574
S1131370F1F7D898E0917F01F091800134822382C3
S1131380FFB6F89440917F015091800180917B01D8
S113139090917C0120917D0130917E018217930709
S11313A009F4D3C04817590709F4F0C0421753078A
S11313B009F404C1FA01A581B68187819085189644
S11313C09C938E93179787819085FC01B683A583A0
S11313D0DA0116961C921E92159718961C921E926C
S11313E01797E0917301F0917401309709F4A4C048
S11313F012962C911297237030E08281837090E0D2
S1131400821793079CF5568345831896FC93EE93B5
S1131410179750937401409373010E94A501FFBE76
S1131420EECE8281837090E0821793070CF459C04A
S11314300780F085E02D3097A1F7E0917501F091D8
S11314407601309709F46FC050874783DA01169606
S1131450FC93EE931597509376014093750124CF36
S11314608281837090E08217930744F10780F085AE
S1131470E02D3097A9F7E0917501F091760130974E
S113148009F45AC050874783DA011696FC93EE9309
S113149015975093760140937501BFCF20E030E05B
S11314A04FE753E4C501B40139D7181684F5C301D5
S11314B0B20193D6CB010197F1F75BCF8581968179
S11314C0DC0118965C934E931797DA0116969C9359
S11314D08E9315971896FC93EE931797568345832E
S11314E09CCF85819681DC0118965C934E93179767
S11314F0DA0116969C938E9315971896FC93EE93A7
S1131500179756834583D0CEB1E0B9832FCFC50159
S1131510B40163D669832ACFC701B6015ED6CB0175
S11315200197F1F723CF50937601409375015093BF
S1131530740140937301B8CE5093760140937501C2
S1131540509374014093730168CF10927E011092FE
S11315507D0110927C0110927B013ACF10927E01A2
S113156010927D0110927C0110927B0177CE61E094
S113157070E0D5CFDA011796ED91FC911897F093AE
S11315807C01E0937B011682158268CEDA011796FE
S1131590ED91FC911897F0937C01E0937B01168206
S11315A0158216CFDA011596ED91FC911697F093FA
S11315B07E01E0937D011086178250CEDA011596E4
S11315C0ED91FC911697F0937E01E0937D011086D6
S11315D01782FECE0F931F93CF93DF931F92CDB745
S11315E0DEB789830FB7F89480917F0190918001D1
S11315F09093420180934101CE010196909344015E
S11316008093430181E090E09093460180934501EB
S1131610559A1FB7F89440917F01509180018091B1
S11316207B0190917C0120917D0130917E01821794
S1131630930709F47FC04817590709F484C0421777
S1131640530709F48CC0FA01A581B681878190857E
S113165018969C938E93179787819085FC01B68387
S1131660A583DA0116961C921E92159718961C9261
S11316701E921797E0917701F0917801309709F461
S113168050C012962C911297237030E0828183709F
S113169090E082179307DCF4568345831896FC93F5
S11316A0EE93179750937801409377010E94A50118
S11316B01FBF0FBF80E00F90DF91CF911F910F915B
S11316C008958281837090E082179307BCF00780AD
S11316D0F085E02D3097A9F7E0917901F0917A0136
S11316E03097F9F050874783DA011696FC93EE930E
S11316F0159750937A0140937901D8CF85819681CB
S1131700DC0118965C934E931797DA0116969C9316
S11317108E9315971896FC93EE93179756834583EB
S1131720C5CF50937A014093790150937801409347
S11317307701BCCF10927E0110927D0110927C0142
S113174010927B018ECFDA011796ED91FC911897D8
S1131750F0937C01E0937B011682158282CFDA013B
S11317601596ED91FC911697F0937E01E0937D011F
S11317701086178276CFEF92FF921F93CF93DF9359
S11317801F92CDB7DEB71FB7F89480914801882324
S113179069F1E0904701F12C80914801DE01119636
S11317A021E030E0AD014F5F5F4F9FEF980F9093C2
S11317B04801F701E81BF109EF71FF27E95BFE4FD0
S11317C082818C932150310960914801892FDA017B
S11317D06111E8CF2115310571F41FBF89810F9084
S11317E0DF91CF911F91FF90EF900895AE014F5F6D
S11317F05F4F21E030E080917F01909180019093D0
S11318006A018093690150936C0140936B0130939A
S11318106E0120936D01FFB6F89440917F015091C1
S1131820800180917B0190917C0120917D01309118
S11318307E018217930709F478C04817590709F401
S11318407DC04217530709F485C0FA01A581B6810A
S11318508781908518969C938E931797878190859E
S1131860FC01B683A583DA0116961C921E92159785
S113187018961C921E921797E0917701F0917801C7
S1131880309709F449C012962C911297237030E0D6
S11318908281837090E082179307A4F45683458372
S11318A01896FC93EE931797509378014093770121
S11318B00E94A501FFBE91CF8281837090E08217C0
S11318C09307BCF00780F085E02D3097A9F7E091ED
S11318D07901F0917A013097F9F050874783DA0162
S11318E01696FC93EE93159750937A0140937901E1
S11318F0DFCF85819681DC0118965C934E93179710
S1131900DA0116969C938E9315971896FC93EE9392
S1131910179756834583CCCF50937A01409379012E
S11319205093780140937701C3CF10927E011092B7
S11319307D0110927C0110927B0195CFDA011796FC
S1131940ED91FC911897F0937C01E0937B01168252
S1131950158289CFDA011596ED91FC911697F093D3
S11319607E01E0937D01108617827DCFF8940F925B
S11319700FB60F92EF93FF93E0917F01F0918001F6
S11319800E2E0F2A31F4FF91EF910F900FBE0F909E
S113199024C00BB60F921F922F923F924F925F92E8
S11319A06F927F928F929F92AF92BF92CF92DF926B
S11319B0EF92FF920F931F932F933F934F935F9355
S11319C06F937F938F939F93AF93BF93CF93DF9343
S11319D011240DB601920EB6019280916F0190917F
S11319E07001A0917101B09172010196A11DB11D08
S11319F080936F0190937001A0937101B093720171
S1131A00E0917301F0917401309721F4E6E6F0E07F
S1131A100994B2C02781308583819481009709F4A9
S1131A2090C0019794838383009709F08AC06FB7AD
S1131A30F8948091730190917401409175015091D3
S1131A4076018417950749F4109276011092750176
S1131A50109274011092730128C08E179F0759F4D5
S1131A60A781B085B0937401A093730116961C925C
S1131A701E9215971AC04E175F0759F4A581B681B7
S1131A80B0937601A093750118961C921E92179735
S1131A900CC0A581B6818781908518969C938E93FE
S1131AA01797C781D085BE83AD83168215821086B1
S1131AB01782A0917B01B0917C011097B1F0428113
S1131AC0437050E012968C911297837090E08417C3
S1131AD09507A4F41696FC93EE931597B087A78305
S1131AE0F0937C01E0937B012BC0F0937E01E093A3
S1131AF07D01F0937C01E0937B0122C017960D9049
S1131B00BC91A02D109789F112968C911297837035
S1131B1090E08417950794F719C01896FC93EE93F8
S1131B201797B683A583F0937E01E0937D0108C0E7
S1131B30F0937E01E0937D01F0937C01E0937B01BF
S1131B406FBFF901309709F065CF60CF1596CD913D
S1131B50DC911697F887EF83D683C583B087A78374
S1131B601696FC93EE931597EBCFA0917D01B0915F
S1131B707E01109791F6DCCF1F920F920FB60F9251
S1131B8011240BB60F922F933F934F936F937F9330
S1131B908F939F93AF93BF93EF93FF93CF93DF9371
S1131BA01F92CDB7DEB78BB18C7109F086C08091DE
S1131BB06B0190916C01892B09F4A1C0E0916B0138
S1131BC0F0916C01CF01019690936C0180936B01AD
S1131BD08CB1808380916D0190916E0101979093F7
S1131BE06E0180936D01892BA9F00F90DF91CF9145
S1131BF0FF91EF91BF91AF919F918F917F916F91E1
S1131C004F913F912F910F900BBE0F900FBE0F90ED
S1131C101F90189510926C0110926B0160916901EC
S1131C2070916A014FB7F89480917701909178018F
S1131C302091790130917A018217930709F493C0B6
S1131C406817790709F4A2C06217730709F4AAC0D8
S1131C50FB01A581B6818781908518969C938E930C
S1131C60179787819085FC01B683A583DB011696BF
S1131C701C921E92159718961C921E921797E0912B
S1131C807B01F0917C01309709F476C012962C9177
S1131C901297237030E08281837090E0821793075B
S1131CA0ACF4768365831896FC93EE931797709340
S1131CB07C0160937B014FBF98CF8CB1898395CF12
S1131CC08281837090E082179307CCF10780F085BE
S1131CD0E02D3097A9F7E0917D01F0917E013097D6
S1131CE009F44AC070876783DB011696FC93EE9370
S1131CF0159770937E0160937D014FBF76CFE0917D
S1131D00470181E08E0F80934701F0E08CB1E95BDD
S1131D10FE4F8283809147018F71809347018091A8
S1131D2048018F5F8093480180914801803209F017
S1131D305CCF8091480181508093480156CF8581C2
S1131D409681DC0118967C936E931797DB011696A7
S1131D509C938E9315971896FC93EE93179776831E
S1131D6065834FBF42CF10927A011092790110928D
S1131D707801109277017ACF70937E0160937D0190
S1131D8070937C0160937B014FBF2FCFDB011796CB
S1131D90ED91FC911897F0937801E0937701168206
S1131DA0158264CFDB011596ED91FC911697F093A3
S1131DB07A01E09379011086178258CF1F920F920F
S1131DC00FB60F9211240BB60F922F933F934F939C
S1131DD08F939F93AF93BF93CF93DF93EF93FF932F
S1131DE0E0914301F0914401CF01019690934401A5
S1131DF08093430180818CB9809145019091460183
S1131E0001979093460180934501892B91F0FF91AE
S1131E10EF91DF91CF91BF91AF919F918F914F91AE
S1131E203F912F910F900BBE0F900FBE0F901F90FC
S1131E3018955598A0914101B09142014FB7F8947B
S1131E4080917701909178012091790130917A0104
S1131E508217930709F475C0A817B90709F47AC063
S1131E601596ED91FC911697A217B30709F47DC05E
S1131E7017968D919C911897908787831796CD918B
S1131E80DC911897FE83ED8316961C921E9215978B
S1131E9018961C921E921797E0917B01F0917C0199
S1131EA0309709F444C012962C911297237030E0B5
S1131EB08281837090E08217930794F4B683A5839C
S1131EC01896FC93EE931797B0937C01A0937B0133
S1131ED04FBF9DCF8281837090E082179307BCF03F
S1131EE00780F085E02D3097A9F7E0917D01F0910E
S1131EF07E013097E1F0B087A7831696FC93EE93AA
S1131F001597B0937E01A0937D014FBF80CFC5810B
S1131F10D681B887AF831696DC93CE93159718961F
S1131F20FC93EE931797B683A5834FBF70CFB093FE
S1131F307E01A0937D01B0937C01A0937B014FBFF0
S1131F4066CF10927A011092790110927801109262
S1131F5077019ACF1796ED91FC911897F093780139
S1131F60E0937701168215828FCFF0937A01E09384
S1131F7079011086178288CF8FEF8ABB8FB7F894C8
S1131F8092E09BB990E199B91092900098E19AB9C6
S1131F9096E090939500579A27E031E030938401BE
S1131FA0209383018FBF20E030E043E067E470E0DA
S1131FB085EF98E00E94DC0020E030E043E067E435
S1131FC070E08FED91E00E94DC0020E030E042E020
S1131FD067E470E083EB92E00E94DC0020E030E0F4
S1131FE041E067E470E085E893E00E94DC0020E0D3
S1131FF030E040E060E870E080EB96E00E94DC00B6
S113200020E030E041E060E870E08BE694E00E947C
S1132010DC0088E083BF83B7846083BF8DE781BF22
S113202087B7826087BF80E285BFE6E6F0E0099467
S11320308FEF8BBB1BBAFDCF5058BB27AA270ED0FE
S113204033C124D130F029D120F031F49F3F11F471
S11320501EF419C10EF4E095E7FB0FC1E92F35D149
S113206080F3BA17620773078407950718F071F4B1
S11320709EF54DC10EF4E0950B2EBA2FA02D0B0149
S1132080B90190010C01CA01A0011124FF27591BB9
S113209099F0593F50F4503E68F11A16F040A22FBF
S11320A0232F342F4427585FF3CF46953795279530
S11320B0A795F0405395C9F77EF41F16BA0B620B2F
S11320C0730B840BBAF09150A1F0FF0FBB1F661F76
S11320D0771F881FC2F70EC0BA0F621F731F841FB9
S11320E048F4879577956795B795F7959E3F08F0DF
S11320F0B3CF9395880F08F09927EE0F979587959E
S1132100089597D008F481E008950CD0CDC0C5D0CF
S113211040F0BCD030F021F45F3F19F0AEC0511153
S1132120F7C0B1C0D2D098F39923C9F35523B1F3C2
S1132130951B550BBB27AA2762177307840738F032
S11321409F5F5F4F220F331F441FAA1FA9F333D091
S11321500E2E3AF0E0E830D091505040E695001C45
S1132160CAF729D0FE2F27D0660F771F881FBB1F01
S1132170261737074807AB07B0E809F0BB0B802DDB
S1132180BF01FF2793585F4F2AF09E3F510568F027
S113219074C0BEC05F3FECF3983EDCF38695779540
S11321A06795B795F7959F5FC9F7880F911D969529
S11321B0879597F90895E1E0660F771F881FBB1F85
S11321C0621773078407BA0720F0621B730B840B32
S11321D0BA0BEE1F88F7E09508957FD088F09F57DB
S11321E090F0B92F9927B751A0F0D1F0660F771F5F
S11321F0881F991F1AF0BA95C9F712C0B13081F03F
S113220086D0B1E0089583C0672F782F8827B85F00
S113221039F0B93FCCF3869577956795B395D9F79F
S11322203EF490958095709561957F4F8F4F9F4FA9
S11322300895990F0008550FAA0BE0E8FEEF161653
S11322401706E807F907C0F012161306E407F507A6
S113225098F0621B730B840B950B39F40A2661F01A
S1132260232B242B252B21F408950A2609F4A140BD
S1132270A6958FEF811D811D089597F99F6780E8CA
S113228070E060E008959FEF80EC089500240A94C4
S11322901616170618060906089500240A9412163D
S11322A01306140605060895092E0394000C11F470
S11322B0882352F0BB0F40F4BF2B11F460FF04C01D
S11322C06F5F7F4F8F4F9F4F089557FD9058440F76
S11322D0551F59F05F3F71F04795880F97FB991F81
S11322E061F09F3F79F0879508951216130614063E
S11322F0551FF2CF4695F1DF08C0161617061806CB
S1132300991FF1CF86957105610508940895E894A5
S1132310BB2766277727CB0197F908958ADF08F44E
S11323208FEF08950BD0C0CFB1DF28F0B6DF18F0DF
S1132330952309F0A2CFA7CF1124EACFC6DFA0F3DB
S1132340959FD1F3950F50E0551F629FF001729F46
S1132350BB27F00DB11D639FAA27F00DB11DAA1F65
S1132360649F6627B00DA11D661F829F2227B00DB2
S1132370A11D621F739FB00DA11D621F839FA00D3D
S1132380611D221F749F3327A00D611D231F849F8D
S1132390600D211D822F762F6A2F11249F575040E4
S11323A08AF0E1F088234AF0EE0FFF1FBB1F661F7F
S11323B0771F881F91505040A9F79E3F510570F038
S11323C05CCFA6CF5F3FECF3983EDCF38695779520
S11323D06795B795F795E7959F5FC1F7FE2B880F33
S11323E0911D9695879597F90895A1E21A2EAA1B37
S11323F0BB1BFD010DC0AA1FBB1FEE1FFF1FA217B1
S1132400B307E407F50720F0A21BB30BE40BF50BAD
S1132410661F771F881F991F1A9469F76095709536
S1132420809590959B01AC01BD01CF0108950FD01B
S1132430A59F900DB49F900DA49F800D911D112414
S11324400895B7FFF4CFF3DF821B930B0895A29F87
S1132450B001B39FC001A39F700D811D1124911D74
S1132460B29F700D811D1124911D0895CF93DF93A8
S1132470CDB7DEB7AE014B5F5F4FFA016191719149
S1132480AF01809183019091840103D0DF91CF91BA
S113249008952F923F924F925F926F927F928F9204
S11324A09F92AF92BF92CF92DF92EF92FF920F93DF
S11324B01F93CF93DF93CDB7DEB72B970FB6F89466
S11324C0DEBF0FBECDBF6C017B018A01FC01178208
S11324D01682838181FFBFC1CE0101963C01F601C2
S11324E09381F70193FD859193FF81917F01882367
S11324F009F4ADC1853239F493FD859193FF81913F
S11325007F01853221F4B60190E0D6D1E8CF912C39
S1132510212C312CFFE1F315D8F08B3279F038F40B
S1132520803279F08332A1F4232D20611DC08D32D5
S113253061F0803369F4232D216016C0832D8260FD
S1132540382EE32DE4603E2E2AC0F32DF8601DC022
S113255037FC2DC020ED280F2A3040F08E32B9F41C
S113256036FC75C1232D2064322E19C036FE06C0F8
S11325708AE0989E200D1124922E11C0EAE02E9E2E
S1132580200D1124222EF32DF0623F2E08C08C362C
S113259021F4832D8068382E02C0883641F4F70177
S11325A093FD859193FF81917F018111B3CF982F82
S11325B09F7D9554933028F40C5F1F4F9FE39983BC
S11325C00DC0833631F0833771F0833509F055C07F
S11325D020C0F801808189830E5F1F4F8824839473
S11325E0912C530112C02801F2E04F0E511CF80146
S11325F0A080B18036FE03C0692D70E002C06FEF89
S11326007FEFC5014ED14C018201F32DFF773F2EA0
S113261015C0280122E0420E511CF801A080B180AF
S113262036FE03C0692D70E002C06FEF7FEFC50175
S11326302DD14C01F32DF0683F2E820133FC19C0DB
S1132640822D90E088169906A0F4B60180E290E00D
S113265033D12A94F5CFF50137FC859137FE81916A
S11326605F01B60190E028D121102A9421E0821A5A
S113267091088114910479F7E1C0843611F0893608
S113268039F5F80137FE07C0608171818281938139
S11326900C5F1F4F08C060817181072E000C880BEE
S11326A0990B0E5F1F4FF32DFF763F2E97FF09C046
S11326B090958095709561957F4F8F4F9F4FF068EF
S11326C03F2E2AE030E0A30133D1882E861844C07F
S11326D0853731F4232D2F7EB22E2AE030E025C039
S11326E0932D997FB92E8F36C1F018F4883579F07F
S11326F0AEC0803719F0883721F0A9C0E92FE06116
S1132700BE2EB4FE0DC0FB2DF460BF2E09C034FEF6
S11327100AC0292F2660B22E06C028E030E005C08A
S113272020E130E002C020E132E0F801B7FE07C04A
S113273060817181828193810C5F1F4F06C060812B
S1132740718180E090E00E5F1F4FA301F1D0882ECD
S11327508618FB2DFF773F2E36FE0DC0232D2E7FCE
S1132760A22E891458F434FE0BC032FC09C0832D08
S11327708E7EA82E05C0B82CA32C03C0B82C01C093
S1132780B92CA4FE0FC0FE01E80DF11D8081803339
S113279021F49A2D997EA92E09C0A2FE06C0B394F5
S11327A0B39404C08A2D867809F0B394A3FC10C0B6
S11327B0A0FE06C0B21480F4280C922C9B180DC005
S11327C0B21458F4B60180E290E076D0B394F8CF16
S11327D0B21418F42B1802C0982C212CA4FE0FC09C
S11327E0B60180E390E068D0A2FE16C0A1FC03C04D
S11327F088E790E002C088E590E0B6010CC08A2D1D
S1132800867851F0A1FE02C08BE201C080E2A7FCF1
S11328108DE2B60190E050D0891430F4B60180E323
S113282090E04AD09A94F8CF8A94F301E80DF11D10
S11328308081B60190E040D08110F6CF222009F4C7
S11328404ECEB60180E290E037D02A94F7CFF6015D
S11328508681978102C08FEF9FEF2B960FB6F89475
S1132860DEBF0FBECDBFDF91CF911F910F91FF90BF
S1132870EF90DF90CF90BF90AF909F908F907F901C
S11328806F905F904F903F902F900895FC010590BA
S1132890615070400110D8F7809590958E0F9F1F5E
S11328A00895FC016150704001900110D8F78095A3
S11328B090958E0F9F1F08950F931F93CF93DF93CF
S11328C0FB01238121FD03C08FEF9FEF2CC022FF6A
S11328D016C046815781248135814217530744F439
S11328E0A081B1819D012F5F3F4F318320838C9361
S11328F0268137812F5F3F4F3783268314C08B0196
S1132900EC01FB010084F185E02D0995892BE1F6AA
S1132910D80116968D919C911797019617969C93C2
S11329208E931697CE01DF91CF911F910F91089549
S1132930FA01AA27283051F1203181F1E8946F93EC
S11329406E7F6E5F7F4F8F4F9F4FAF4FB1E03ED092
S1132950B4E03CD0670F781F891F9A1FA11D680F30
S1132960791F8A1F911DA11D6A0F711D811D911D63
S1132970A11D20D009F468943F912AE0269F1124D8
S11329803019305D3193DEF6CF010895462F47703C
S1132990405D4193B3E00FD0C9F7F6CF462F4F7097
S11329A0405D4A3318F0495D31FD4052419302D0F5
S11329B0A9F7EACFB4E0A69597958795779567959B
S11329C0BA95C9F700976105710508959B01AC019B
S11329D00A2E06945795479537952795BA95C9F7C2
S11329E0620F731F841F951FA01D0895F894FFCFD5
S11329F07F10010A0000000000000300000000EA4C
S1132A000ABB0B00006F732074696D653A20256C56
S1132A10750A0069646C655F636F756E743A20258E
S1072A206C750A00C3
S9030000FC
